:020000040800F2
:10200000680D0020415E0008AD230008C9490008A2
:10201000AF230008B1230008B3230008000000002C
:10202000000000000000000000000000B5230008D0
:10203000B7230008000000005B490008B92300082E
:102040005B5E00085B5E00085B5E00085B5E00088C
:102050005B5E00085B5E00085B5E00085B5E00087C
:102060005B5E00085B5E00085B5E00085B5E00086C
:10207000BD2300085B5E00085B5E00085B5E000835
:102080005B5E00085B5E00085B5E00085B5E00084C
:102090005B5E00085B5E00085B5E00085B5E00083C
:1020A0005B5E00085B5E00085B5E00085B5E00082C
:1020B0005B5E00085B5E00085B5E00085B5E00081C
:1020C0005B5E00085B5E00085B5E00085B5E00080C
:1020D0005B5E0008BF230008C1230008C32300087B
:1020E0005B5E00085B5E00085B5E00085B5E0008EC
:1020F0005B5E00085B5E00085B5E00085B5E0008DC
:102100005B5E00085B5E00085B5E00085B5E0008CB
:102110005B5E00085B5E00085B5E00085B5E0008BB
:102120005B5E00085B5E00085B5E00085B5E0008AB
:1021300000F002F800F03CF80AA090E8000C82449D
:102140008344AAF10107DA4501D100F031F8AFF27A
:10215000090EBAE80F0013F0010F18BFFB1A43F085
:1021600001031847084A0000284A0000103A24BF1B
:1021700078C878C1FAD8520724BF30C830C144BFEC
:1021800004680C607047000000230024002500262E
:10219000103A28BF78C1FBD8520728BF30C148BFCA
:1021A0000B6070471FB503F052FF1FBD10B510BD87
:1021B00003F013FF1146FFF7F5FF00F094F803F06A
:1021C00031FF03B4FFF7F2FF03BC03F039FF000057
:1021D000002400F0B5F94FF4FA7521461CA001F077
:1021E000E4F8641C002000F0C6F9284602F084F9E7
:1021F0001DA001F0DAF8002000F0C8F9284602F02E
:102200007BF9EAE770471FB54FF40071194A0520C2
:102210001424CDE90021CDE902400023164A17A17C
:10222000174802F05EF810B9154802F097F8082038
:1022300003020022AFF23301CDE9000411A002F045
:10224000C2F808B102F08AF804B0002010BD000006
:102250006C6564206F6E2C20636F756E74203A205D
:1022600025640D0A000000006C6564206F66660D31
:102270000A000000F4000020D12100086C65640011
:10228000F4020020696E69740000000005460C46E7
:1022900018A001F08AF8294620A001F086F821460E
:1022A00023A001F082F8FEE710B500F05DF801F020
:1022B0007DF800F079F901F0D9FD02F06FFA2149BB
:1022C000214801F0C7FA01F06FFE00F0CEF800F0EF
:1022D000D2F9FFF798FF02F062FA00F0BDFABDE80C
:1022E000104001F077BE10B502F020FBFFF7DCFFD5
:1022F000002010BD0A0D2057726F6E67207061724A
:10230000616D657465722076616C756520646574B5
:102310006563746564206F6E0D0A00002020202024
:1023200020202066696C65202025730D0A000000BE
:10233000202020202020206C696E65202025640D3F
:102340000A00000000000120680D002000214FF06D
:10235000006003F03ABD10B500F004FF00F028F96A
:10236000BDE8104000F009BF10B5FFF7EFFF0D48C2
:102370004FF47A710068B0FBF1F0B0F1807F0CD2BD
:1023800020F07F414FF0E020491E4161064AF021D4
:1023900011700021816107210161BDE8104000F04A
:1023A000CBB80000E000002023ED00E07047FEE71E
:1023B000FEE7FEE770477047FFF7CDBF70477047F5
:1023C00070477047002070470020704710B51029F3
:1023D00002D011291AD104E0144603F051FB206009
:1023E00014E0144601214FF0C05003F0DAF9012047
:1023F00003F02AFA03F06FFB206803F04AFB03F0B6
:102400006AFB4AF2A551042003F053FA002010BDE4
:1024100010B54FF4001401214FF0C05003F0C1F982
:10242000012003F011FA03F03BFA012003F042F916
:10243000412003F00DF998B1A4B14FF4807003F07E
:1024400054F9012003F066F903F04AFB03F043FB63
:1024500047F6FF7003F02AFB03F03DFB002010BDA0
:10246000641EE5D14FF0FF3010BD10B5154C0520AE
:102470002076042003F07BFAA0F52541A5390DD084
:1024800011A000F092FF16A000F08FFFFFF7C0FF31
:1024900030B1BDE810401EA000F087BF03F020FB64
:1024A000002021490322C4E90A012049C4E90C01A2
:1024B0001F49C4E90E012064BDE810401DA1014878
:1024C00000F0BEB87C030020727463206973206E34
:1024D0006F7420636F6E666967757265640A0000C9
:1024E000706C6561736520636F6E66696775726590
:1024F0002077697468207365745F64617465206116
:102500006E64207365745F74696D650A0000000075
:1025100072746320636F6E666967757265206661A9
:10252000696C2E2E2E0D0A00C5230008C923000851
:10253000CD230008727463000121084603F015B929
:1025400038B50121402003F010F910208DF8030068
:1025500003208DF802000420124CADF800006946FB
:10256000204603F0E7FA0821ADF80010694620463E
:1025700003F0E0FA38BD0B4A28B1012805D1082143
:10258000104603F067BB0421FAE77047054A28B1FB
:10259000012805D10821104603F081BB0421FAE788
:1025A00070470000001801407047114800687047EC
:1025B0000F4910B50868401C086001F0AAFEC16C04
:1025C000491EC16403D1816CC16401F037FFBDE8CD
:1025D000104002F0AFB800EB4001C1EBC01040F278
:1025E000E73101EBC000491CB0FBF1F0704700007F
:1025F000000000202DE9F041074601F08AFE08B1F5
:1026000001F08CFD5B4E56F8044F08E0A4F1100574
:1026100008223946284600F09AFE50B12468B44298
:10262000F4D101F076FE08B101F083FD0020BDE891
:10263000F08101F06EFE08B101F07BFD2846F6E75F
:102640002DE9F041040016460F464FF0FF3503D048
:102650000846FFF7CFFF08B12846E8E73A460621CB
:10266000204601F008FC66830020E0E710B501F089
:1026700029FC002010BD70B53E4E56F8045F14E0F2
:10268000A969A5F1100479B1608BC0060CD420466D
:102690008847020004D0214637A000F086FE03E000
:1026A000608B40F0100060832D68B542E8D10020B7
:1026B00070BD70B50446408B00250E46C0060FD491
:1026C000A16A49B120468847050005D00246214647
:1026D00029A000F06AFE18E0608B40F010006083D3
:1026E000608B000705D5A08B000702D56FF00600B0
:1026F00070BDE26A32B1314620469047050001D0F4
:10270000A81D02D146F00800A083284670BD10B570
:1027100004460020216B21B12046884708B1811D65
:1027200001D10021A18310BD10B5446B1CB1A4469A
:10273000BDE8104060476FF0050000F03BFD002051
:1027400010BD10B5846B1CB1A446BDE810406047B5
:102750006FF0050000F02EFD002010BDC36B03B12B
:102760001847002070470162002070474162002036
:102770007047000084000020546F20696E697469FE
:10278000616C697A65206465766963653A257320B2
:102790006661696C65642E20546865206572726F8D
:1027A0007220636F64652069732025640A0000004D
:1027B0002DE9F041364800F063F8002847D102F0D7
:1027C000B5F80746324800F05BF858BB3048066859
:1027D000183EF46824B1206AB04201D10020206282
:1027E00006F11805D5E900014160D5E9000108604E
:1027F000F561B561D6F8801009B13046884730469A
:1028000001F0B8FB01280DD0384602F093F8F06AC9
:1028100001F0C0F8304601F09CFB002C17D0206A74
:1028200028B10CE03846BDE8F04102F083B804F16D
:102830003C0000F025F810B1606B401E6063606BD7
:10284000002804D12046BDE8F04101F07DBABDE882
:10285000F081FFF7ADFFFCE71FB520230D481F22D5
:10286000D9008DE80F0000230B4A0CA1883801F035
:1028700038FD04B00748BDE81040883801F06EBD4F
:102880000168814201D1012070470020704700009B
:10289000C000002048040020532800087469646CBC
:1028A000650000002DE9F041054614460E46084635
:1028B00001F0EDFD06F11807ACB1012C17D12C6821
:1028C0000DE096F8391094F82120A4F118009142F7
:1028D00004D23946183000F030FC02E02468AC42E3
:1028E000EFD1AC4203D13946284600F026FC002047
:1028F000BDE8F08170B504464FF0FF360AE002F003
:1029000015F8054620681838466301F005FD28468D
:1029100002F010F8204600F017FC0028EFD000204D
:1029200070BD2DE9F04116460A4605461F460121B5
:1029300001F0A1FA05F11804EC61AC612E846F720C
:102940000020D5E710B504461830FFF7D3FF204626
:1029500001F0B8FA002010BD70B50C4601461546CE
:10296000012001F0BDFA002805D000F11801C16175
:1029700081610484457270BD10B504461830FFF7BC
:10298000B9FF204601F0E5FA002010BD73B50446FA
:1029900001F0CCFF0646208C28B1401E2084304632
:1029A00001F0C8FF21E0019808B301F0B2FC054630
:1029B00000206863627A294604F11800FFF772FF6D
:1029C0000198002809DD05F1500001AA0021044604
:1029D00001F098FE204601F048FE304601F0AAFFC3
:1029E00001F01DFB686B002800D100207CBD304643
:1029F00001F0A0FF6FF001007CBD0021C6E72DE9CA
:102A0000F0410446002501F091FF064604F118004C
:102A1000074600F099FB40B1208C401C20843046D2
:102A200001F088FF012D05D006E0384600F093FB49
:102A30000125F4E701F0F3FA002059E770B50546E7
:102A40001446012902D04FF0FF3070BD01F06EFF37
:102A5000064605F11800FFF74DFF2C84304601F0C3
:102A600069FF01F0DCFA002070BD70B515460A461A
:102A70000446022101F0FFF904F11800E061A061B1
:102A800004F10804012020834FF000004FF0FF0103
:102A9000E061A176E076657070BD10B5044618302F
:102AA000FFF728FF204601F00DFA002010BD10B5F9
:102AB0000C460146022001F013FA00280DD000F167
:102AC0001801C1618161012101840021FF2241625D
:102AD00080F8222080F82310447210BD10B50446FF
:102AE0001830FFF707FF204601F033FA002010BD31
:102AF00073B5044601F01AFF064601F00AFC0546CC
:102B000000206863606AA84204D114F8230F401CB7
:102B1000207037E0218C51B1491E24F8201F6560D8
:102B200095F83900A070E078401CE0702AE0019927
:102B300069B395F8391090F83920914204D205F123
:102B40003902022101F0D9FC627A294604F1180009
:102B5000FFF7A8FE0198002809DD05F1500001AA41
:102B60000021044601F0CEFD204601F07EFD3046F6
:102B700001F0E0FE01F053FA686B002806D101F085
:102B8000D5FE0646304601F0D5FE00207CBD6FF034
:102B9000010430466C6301F0CDFE20467CBD2DE97A
:102BA000F0410446002701F0B4FB064601F0BEFEEA
:102BB0000546606AB04206D07C1E2846746301F068
:102BC000B9FE204694E694F82310491E11F0FF0147
:102BD00084F8231018D194F8221090F839209142EB
:102BE00004D004F12202022101F087FC04F1180054
:102BF000064600F0A9FA68B1208C401C2084002011
:102C00006062FF2084F82200284601F093FE012F25
:102C10000FD010E054F8180F1838E06090F8390021
:102C2000A072E07A401CE072304600F094FA01276E
:102C3000EAE701F0F4F900205AE64FF0FF30704760
:102C400070B514460A460546032101F014F96C726A
:102C500005F11804EC610020AC61286270BD10B56C
:102C600004461830FFF746FE204601F02BF90020FD
:102C700010BD10B50C460146032001F031F90028C3
:102C800006D0447200F11801C16181610021016226
:102C900010BD10B504461830FFF72CFE204601F099
:102CA00058F9002010BD2DE9F04704460D004FF003
:102CB000FF370DD0002601F039FE8146206A2843F7
:102CC000206204F11800804600F03EFA18B128E0B6
:102CD0003846BDE8F087A56921E095F82C20A5F1DC
:102CE00018003946D30705D0026C236A9A4309D1EC
:102CF000002107E0920705D5026C236A1A4001D033
:102D00000264F5E72D6851B990F84410490703D5DE
:102D1000216A026C9143216201F0FEFA01264545C9
:102D2000DBD1484601F006FE012E01D101F077F912
:102D30000020CEE72DE9FF470546DDF830800E0084
:102D400017464FF0FF3047D001F0E3FA0446002069
:102D5000606301F0EBFD8146F80704D0286A36EA8B
:102D6000000005D00EE0B8070CD5286A304209D023
:102D7000286A3040C8F80000780729D5286AB0438F
:102D8000286225E0039848B3266484F844706A7A80
:102D9000214605F11800FFF785FD0398002809DD9D
:102DA00004F1500003AA0021054601F0ABFC2846BF
:102DB00001F05BFC484601F0BDFD01F030F9606BAD
:102DC000002809D101F0B2FD216C8146C8F800103D
:102DD000484601F0AFFD606B04B07AE76FF0010088
:102DE0006063F5E770B50446012902D04FF0FF306B
:102DF00070BD01F09BFD054604F11800FFF77AFD58
:102E000000202062284601F095FD01F008F900201D
:102E100070BD2DE9F0411646DDE906780A46044604
:102E20001D46042101F027F884F8098004F11800F8
:102E3000E0612662ED1CA06125F0030080B2A08451
:102E4000001DB7FBF0F0E0840022E262226310462E
:102E5000626308E0A18C236A091D00FB0131636BEA
:102E60000B60401C6163E18C8142F3DC2285002011
:102E70003EE510B504461830FFF73CFD204601F052
:102E800021F8002010BD10B504461830FFF732FDC0
:102E9000206A00F07FFD204601F05BF8002010BDA5
:102EA0002DE9F0410D46014616461F46042001F06B
:102EB00017F804001BD0677204F11800E061ED1CE4
:102EC000A06125F0030080B2A084B1B2001DE184AE
:102ED000484300F0EFFC206228B10022E262226346
:102EE000104662630DE02046FFF7CDFF0020FFE4AF
:102EF000A18C236A091D00FB0131636B0B60401C30
:102F00006163E18C8142F3DC22852046F0E42DE907
:102F1000F0410446808C16460F46B04202D24FF074
:102F2000FF30E5E401F002FD656BA5B1296861633E
:102F300001F000FD0020286032463946281D00F0CF
:102F400073F901F0F3FC0646206B00B105602563C0
:102F5000E06A28B105E001F0EDFC6FF00200C7E483
:102F6000E562208D401C208504F11800044600F025
:102F7000EBF820B1304601F0DDFC0020B8E420463B
:102F800000F0E9F8304601F0D5FC01F048F8F4E72C
:102F90002DE9F0410446808C16460F46B04202D21D
:102FA0004FF0FF30A4E401F0C1FC656B8DB12968DE
:102FB000616301F0BFFC32463946281D00F034F948
:102FC00001F0B4FC0646E06A2860E562206B28B197
:102FD00005E001F0AFFC6FF0020089E42563208D6D
:102FE000401C208504F11800044600F0ADF820B123
:102FF000304601F09FFC00207AE4204600F0ABF858
:10300000304601F097FC01F00AF8F4E72DE9FF5F84
:1030100004469146002601F07CF9054601F086FC45
:103020008046208D03996FF0010B0843374637D156
:10303000404601F07FFC584604B0BDE8F09F6F6346
:10304000039800284ED0627A294604F11800FFF751
:1030500029FC039800280CDDFFF7A7FA064605F1C6
:10306000500003AA0021824601F04CFB504601F0BB
:10307000FCFA404601F05EFC00F0D1FF686B0028CE
:10308000DAD101F053FC80460398002808DDFFF7F1
:103090008CFAA0EB06060398801B039000D50397DB
:1030A000208D0028CBD0E56A2868E062206BA8421A
:1030B00000D12763208D401E2085404601F03AFC58
:1030C000A28C48464A4500D30246291D019800F0CB
:1030D000ABF801F02BFC616B2960656301F02AFC01
:1030E0000020A9E7404601F025FC5846C5F834B059
:1030F000A2E770B50446012902D04FF0FF3070BD41
:1031000001F014FC054604F11800FFF7F3FB002161
:1031100008E00268E262226B824200D12163626BA6
:1031200002606063E06A0028F3D12185284601F03F
:1031300001FC00F074FF002070BD4268116042681D
:103140004A604160086070470168814201D10120F6
:1031500070470020704710B50068183801F0DCF89F
:10316000002010BD10B501F0E1FB0B4A1178491C9D
:103170001170BDE8104001F0DDBB10B501F0D6FBC9
:10318000054A1178491E1170BDE8104001F0D2BB0C
:1031900001480078704700000400002010B5FFF7D8
:1031A000F7FFFE4C20B901F0B4F808B1406B10BD38
:1031B000206810BD70B50446FFF7EAFFF74D20B94F
:1031C00001F0A7F808B1446370BD2C6070BD10B564
:1031D000FFF7DEFF20B901F09CF808B1343010BDD4
:1031E000EE4810BD10B50346CCB2042A15D38107B2
:1031F00013D1194644EA042343EA034305E00B6074
:103200004B608B60CB601031103A102AF7D201E08E
:1032100008C1121F042AFBD20B46E1B2521E02D390
:1032200003F8011BFAE710BD10B50346102A1BD3A3
:1032300041EA0304A40717D10C681C604C685C6069
:103240008C689C60CC68DC6010311033103A102A16
:10325000F2D202E010C9121F10C3042AFAD203E00E
:1032600011F8014B03F8014B521EF9D210BD10B5F5
:10327000034681420FD28C189C420CD9811803E07E
:1032800014F8013D01F8013D521EF9D210BD11F8AC
:10329000014B03F8014B521EF9D210BD10B50023AB
:1032A00006E003780C781B1B04D1401C491C521EFD
:1032B000002AF6D1184610BD014600E0491C0A78E4
:1032C000002AFBD1081A7047F0B506460F4608469B
:1032D000FFF7F2FF050010D03046FFF7EDFF044680
:1032E00007E0641E2A4639463046FFF7D7FF20B173
:1032F000761CAC42F5DA0020F0BD3046F0BD10B5CA
:1033000010F8012B11F8013BA2F14104192C00D84F
:103310002032A3F14104192C00D820339A4201D164
:10332000002AEDD1D01A10BD10B5002A07D00346EF
:1033300011F8014B03F8014B2CB1521EF8D110BD0E
:1033400003F8011B00E00021521EF9D110BD10B599
:10335000002308E0047811F8013BE31A5BB223B9BB
:10336000401C14B1521E002AF4D1184610BD01E0D1
:10337000401C491C027812B10B789A42F8D00978A7
:10338000D0B2401A704770B50646FFF795FF401C53
:10339000054600F08FFA040005D02A463146FFF7B3
:1033A00043FF204670BD002070BD704708B57CA06B
:1033B00001220090002311467CA0FFF7F6FF08BD14
:1033C0002DE9FF4F9B46DDE90DE50F9C630601D516
:1033D0007E4B01E07D4B113B9846E30601D524F07E
:1033E0000104E30701D0302300E020239A464FF088
:1033F0000009A3070ED5002A04DA4FF02D09C2F107
:10340000000207E0630701D52B2302E0230701D563
:10341000202399460023EC46C2B10A27BBF10A0FCC
:1034200019D002F00F06120918F806600CF80360B4
:103430005B1C002AF2D1AB4200DD1D46AEEB05025B
:1034400014F0110F4FF020070BD019E030228DF847
:1034500000200123EFE71646B2FBF7F207FB1266E6
:10346000E2E7B9F1000F07D0002A05DD521E03E0A4
:10347000884200D80770401C161EA2F10102F7DC3A
:10348000B9F1000F07D0884203D880F80090A2F16C
:10349000010200F10100E40605D508E0884201D8E8
:1034A00080F800A0401C141EA2F10102F6DC3026B8
:1034B0002C466D1E9C420ADD884200D80670401CD6
:1034C000F6E7884202D81CF803400470401C1C1E1A
:1034D000A3F10103F5DC03E0884200D80770401C2B
:1034E000131EA2F10102F7DC04B0BDE8F08F2DE954
:1034F000FF4F824604460844A0F1010883B01F46EE
:103500004FF0FF3B4FF02009A04500D2D84616E10E
:10351000252803D0444500D8207095E00025059962
:10352000491C059108782D2811D02B2812D020286D
:1035300013D0232814D0302815D00A785E46303AAC
:103540000A2A13D205A800F045F9064618E045F00E
:103550001005E4E745F00405E1E745F00805DEE77E
:1035600045F02005DBE745F00105D8E72A2807D11B
:10357000491C059140CF002E02DA764245F0100535
:1035800005985B4601782E292ED1401C05900178C4
:10359000A1F130020A2A1FD205A819E00800002074
:1035A000417072203230203230313300202F207CA5
:1035B000205C202020202025642E25642E256420D8
:1035C0006275696C642025730A0000005864000865
:1035D00000F000F9034604E02A2904D1401C0590BC
:1035E00008CF002B00DA002305990022087868280C
:1035F00001D06C2802D1491C0246059105980A2188
:1036000000786F2871D00CDC632820D004DC2528DA
:1036100078D058280DD17BE064287DD0692808D166
:103620007AE0702863D073282CD0752876D078285B
:1036300070D0444501D8252020700598641C01787D
:10364000D9B3444500D8217004F1010474E0E806C0
:1036500008D44846761E002E04DD444500D820706C
:10366000641CF7E701CF4445C0B200D82070641C49
:10367000484603E0444500D82070641C761E002EA6
:10368000F8DC59E057F804CBBCF1000F01D10FF280
:103690006C1C6046FFF710FE002B02DD984200DD37
:1036A0001846E9060AD449463246761E824205DDAE
:1036B000444500D82170641CF6E749E0002108E089
:1036C000444502D89CF800202270641C0CF1010CC7
:1036D000491C8142F4DB49463246761E82422BDD8C
:1036E000444500D82170641CF6E70FE00AE0701C26
:1036F00002D1082645F001050096CDE9013504CF39
:10370000102314E044459FD8252005E7082105E053
:1037100045F04005102101E045F002056C2A01D07A
:10372000682A19D004CF0096CDE901350B464146F1
:103730002046FFF745FE04460598401C0590059875
:10374000007800287FF4E4AE44450BD820700BE0ED
:10375000A0F101000590EFE701CF82B2A807E2D502
:1037600012B2E0E788F80000A4EB0A0007B0BCE65C
:103770000FB410B505AB049AFFF7B9FE10BC5DF8A5
:1037800014FB13460A464FF0FF31B0E60FB410B5F4
:1037900004AA0399FFF7F5FFF0E710B5C91CC01C98
:1037A00021F0030420F00300204400F083F80028F7
:1037B00009D0611E084207D00219521E22EA0101F7
:1037C00041F8040C084610BD0119F9E750F8040C43
:1037D00000F0E0B810B5024600206FF02F0307E0BC
:1037E0004C1C1460097800EB800003EB4000084497
:1037F00011680C78303C0A2CF2D310BD284E554C81
:103800004C29000030B5AC4C41682268114402F1EB
:10381000080388420DD04D885DB96568A94208D07B
:10382000A5688D4200D1A0604D6845604968851A41
:10383000CD508168114481420BD04D88002D08D1B4
:10384000A568854200D1A16044684C604068891A2F
:10385000C15030BD0A46C11C10B522F0030321F04F
:103860000301182B20D9A3F118048C421CD35A1A37
:10387000914C183A4FF4F553E26021600B800C3202
:103880000020C1E9012048805018606003800121B8
:103890004180426082600A46002388A18948FFF780
:1038A00040F82068A06010BD0146BDE8104086A029
:1038B000FFF77BBD2DE9F047002807D07E4EC01CE6
:1038C00020F00305F068854202D90020BDE8F087AA
:1038D0000C2D00D20C254FF0FF317A48FFF756F837
:1038E000B0683168D6F80CC08146401AACEB0503CD
:1038F0004AE00C186288BABB6268121A0C3AAA42F3
:1039000041D362684FF00108131A0C3B05F118020D
:1039100093422AD343190C33CA180027578067688B
:10392000C2E901706360A4F8028050680CF10C0CCD
:10393000604502D001F108028350306928440C3000
:1039400030617269824200D270614FF4F55020807C
:103950004C4512D1D6E90120438873B190420CD076
:1039600040680844B060F7E70DE0A4F802806068A2
:10397000621A801A32691044E2E75248FFF73FF8B2
:1039800004F10C00A2E760688342B2D84D48FFF70B
:1039900036F89AE770B5002823D0474D2968884249
:1039A0001FD3696888421CD2A0F10C044FF0FF318C
:1039B0004448FEF7EBFF002060802080A868844226
:1039C00000D2AC6029686068611A401A2969081A37
:1039D00028612046FFF716FFBDE870403948FFF721
:1039E0000EB870BD2DE9F041334E0546C91CF06894
:1039F00021F00304844202D90020BDE8F081BDB16A
:103A00004FF0FF312F48FEF7C1FF326895420AD3CD
:103A10007068854207D2A5F10C018B1A4868C71A55
:103A20000C3FA74208D12748FEF7E9FF2846E4E704
:103A30002046BDE8F0413DE704F11800B84219D234
:103A4000381B37691C44381A0C34306110194FF494
:103A5000F5570780002747804F68C0E901734C6025
:103A6000F36841680C33994201D008328C50FFF75B
:103A7000C9FED8E71348FEF7C2FF2046FFF71AFF3A
:103A8000060009D0A74200D23C4622462946FFF74D
:103A9000CBFB2846FFF77EFF3046AEE770B500FB54
:103AA00001F52846FFF706FF040003D02A4600214F
:103AB000FFF798FB204670BD0C0000206865617020
:103AC00000000000480500206D656D20696E697476
:103AD0002C206572726F7220626567696E20616466
:103AE000647265737320307825782C20616E6420B1
:103AF000656E642061646472657373203078257824
:103B00000A0000002DE9F04116460A4604461F4609
:103B10000521069D00F0AFF9ED1C27F0030025F00C
:103B20000302A661C4E90702121DB0FBF2F0A06215
:103B3000E06204F1300000236063A3632063194650
:103B4000A06906E04D1C05FB020601FB02F5491CBD
:103B50004651A56A8D42F5D8491E514343506062D3
:103B60000020BDE8F0812DE9F04104464FF0FF361A
:103B700000F130070DE000F0D9FE0546206B183843
:103B8000466300F0C9FBA06B401EA063284600F00E
:103B9000D1FE384600F0CAF80028ECD0204600F0EC
:103BA00091F90020DDE770B50E4601461546052067
:103BB00000F096F9040016D0ED1C25F00300051D59
:103BC000206205FB06F0E061FFF774FEA06160B1C2
:103BD000A66204F130006063C4E90B600022A263B6
:103BE0001046A1690CE0002070BD204600F0B1F93C
:103BF000F9E7431C03FB051600FB05F3401CCE5000
:103C0000A36A8342F5D8401E68430A502046616289
:103C100070BD2DE9F04104464FF0FF3600F130074A
:103C20000DE000F083FE0546206B1838466300F077
:103C300073FBA06B401EA063284600F07BFE384655
:103C400000F074F80028ECD0A069FFF7A3FE20462E
:103C500000F07FF9002084E72DE9F341044600F0ED
:103C600065FE0646E06A58B1401EE062656A286853
:103C7000606230462C6000F05DFE281DBDE8FC81CE
:103C8000019838B300F045FB054600F000FC226BBC
:103C900005F1180004F130015060226BAA61206325
:103CA000E961A06B401CA0630198002809DD05F1C3
:103CB000500001AA0021074600F024FD384600F01C
:103CC000D4FC304600F036FE00F0A9F9686B28B14C
:103CD0000020D3E7304600F02DFEF9E700F026FE85
:103CE0000646E06AC0E770B5051F2C6800F01EFEAE
:103CF0000646E06A401CE062606A28606562A06B6C
:103D000078B1206B00211838416300F005FBA06BEF
:103D1000401EA063304600F00DFEBDE8704000F08C
:103D20007EB93046BDE8704000F004BE01688142B3
:103D300001D1012070470020704710B500F0E9FA6A
:103D4000002800D0C06810BD70B50446407AC00796
:103D500071D104F13C0608E0103D284600F00AF954
:103D60000128284607D0FEF707FE3568B542F3D193
:103D700004F15C060BE0FEF7E5FDF6E7103D284692
:103D800000F0F8F80128284607D0FEF7A7FE3568AE
:103D9000B542F3D104F16C060BE0FEF77EFEF6E7C8
:103DA000103D284600F0E6F80128284607D0FEF727
:103DB00070FF3568B542F3D104F17C060BE0FEF7E5
:103DC0004EFFF6E7103D284600F0D4F801282846BB
:103DD00007D0FFF758F83568B542F3D104F18C06E7
:103DE0000BE0FFF746F8F6E7103D284600F0C2F872
:103DF0000128284607D0FFF70CFF3568B542F3D1FC
:103E000004F19C0505E0FFF7AEFEF6E71038FEF77B
:103E10002DFC2868A842F9D104F1AC0608E0103D59
:103E2000284600F0A7F8012828460AD000F00CFC2C
:103E30003568B542F3D1A069FFF7ACFD0025042633
:103E400008E000F0DAFBF3E706EBC5014058FFF7A6
:103E5000A1FD6D1CE06AA842206BF5D808B1FFF700
:103E600099FD204600F075F8002070BD70474D495F
:103E700001EB001070472DE9F04105460C4616464F
:103E8000FFF75BFF28B1FFF758FF00EB0410383055
:103E900002E0444800EB0410074644F0800028721A
:103EA000082231462846FFF73FFA00F03FFD04465E
:103EB00005F11001381D00F064F82046BDE8F0411E
:103EC00000F038BD70B5044600F030FD054604F141
:103ED000100000F05DF82846BDE8704000F02ABDF3
:103EE0002DE9F04105460F46FFF727FF38B1082DB1
:103EF00005D0FFF722FF00EB0516383602E029480F
:103F000000EB0516F068FFF7D5FC04001FD0257202
:103F100000206072FFF711FF18B1607A40F0800056
:103F20006072FFF70AFFE060082239462046FFF77B
:103F3000FBF900F0FBFC054604F11001301D00F018
:103F400020F8284600F0F6FC2046BDE8F08100206D
:103F5000FBE770B5044600F0E9FC054604F11000EB
:103F600000F016F8284600F0E5FC2046BDE8704059
:103F7000FFF710BD007A000601D501207047002030
:103F800070470268516002680A60016048607047CB
:103F9000D0E900124A60D0E9001211604060006070
:103FA000704700002400002010B57A4A00237A4CA4
:103FB0005380184604EBC001401C4960096020286A
:103FC000F8DB1F201070734853600C309360406022
:103FD000006010BD6F4A7149906810F0FF0F02D069
:103FE000C0B2085C13E010F47F4F04D0C0F3072088
:103FF000085C08300BE010F47F0F04D0C0F30740DA
:10400000085C103003E001EB106000781830624962
:1040100051F8300018385060203000F0BCBC70B54A
:1040200000F084FC5B490546488888BB88685B4A89
:1040300010F0FF0F02D0C0B2125C13E010F47F4FFB
:1040400004D0C0F30720125C08320BE010F47F0F9D
:1040500004D0C0F30740125C103203E002EB1060A2
:10406000027818324C484E6850F83240183CB4423E
:104070000ED00A7020464C6000F070F84848007876
:1040800004F12001002806F1200006D000F055FCC4
:104090002846BDE8704000F04DBC00F04EFCF7E74C
:1040A00070B5054600F042FC012185F8381095F8FE
:1040B0003910394A05F1180402EBC1014A6814604D
:1040C0004A68EA614C60A9613249EA6B8B681A431D
:1040D0008A60BDE8704000F02DBC70B5054600F068
:1040E00025FC05F118040146D4E900024260D4E938
:1040F00000021060EC61AC6195F83900264A02EBD1
:10410000C0000268824204D12248EB6B82689A4365
:104110008260BDE87040084600F00CBC10B500F0AD
:1041200005FC1C4A5188491C5180BDE8104000F034
:1041300001BC10B500F0FAFB164A5188491E09B2BD
:104140005180002906DC0021518000F0F3FBBDE81E
:10415000104064E7BDE8104000F0ECBB10B5026A07
:10416000C16A8A4203D9038E0B44934208D20146A6
:104170000CA0FFF71AF900F0D9FB0028FDD110BD03
:1041800020318A42FBD80146BDE810400CA0FFF761
:104190000CB90000B40000206C050020F364000896
:1041A000040000207468726561643A25732073749A
:1041B00061636B206F766572666C6F770A00000032
:1041C0007761726E696E673A20257320737461633C
:1041D0006B20697320636C6F736520746F20656E4C
:1041E00064206F6620737461636B20616464726520
:1041F00073732E0A0000000070B5F048046800F0E8
:1042000095FB05462046FFF768FF042084F8380038
:1042100004F1680000F0C9F904F15000FFF752FE04
:104220002046FFF7A7FE012802D1D4F8800058B13C
:1042300004F11801E24800F0B1F9284600F07AFBD9
:10424000BDE87040FFF7EBBE2046FFF73BFEF4E70A
:1042500010B504466FF00100606304F1180000F02F
:10426000A4F92046FFF71CFFBDE81040FFF7D7BEBA
:104270002DE9FC4119460446DDE90837DDE90A5617
:10428000183004F1200440600060E360C4E90121BB
:10429000BAB2228218464FF02301FEF7A3FF218A0B
:1042A000E068C84B4218D4E90101121F00F0A0FADF
:1042B0002060A5766576A6620020E66260612076C1
:1042C00020666066A4F1200400902346AFF27F02CE
:1042D0000190194604F1500000F07AF90020BDE881
:1042E000FC812DE9FF5F92460EAA0C46B2E8C0039E
:1042F0000A4605469B460021FFF7BDFD8DE8C00339
:104300005B46524621462846FFF7B2FF04B0BDE89F
:10431000F09FAA480068704770B5044690F83800CE
:10432000022802D04FF0FF3070BD00F0FFFA0546C2
:1043300004F1180000F039F904F1680000F035F9D3
:1043400094F8590020F0010084F85900284600F044
:10435000F1FA2046FFF7A4FE002070BD10B500F171
:1043600038004FF001028178417002FA01F24FF0FB
:104370000201426000F83819FFF7CEFF8F4800684D
:1043800008B1FFF74CFE002010BD70B50446FFF7E2
:10439000A4FE04F1500000F030F9042084F8380045
:1043A0002046FFF78FFDD4F8800050B100F0BEFA30
:1043B000054604F11801824800F0F0F8284600F0A4
:1043C000B9FA002070BD2DE9FF478946DDE90C6789
:1043D0008046014692461D460020FFF781FD0400FD
:1043E0000CD02846FFF766FA58B18DE8E100534635
:1043F0004A4641462046FFF73BFF204604B0BDE851
:10440000F0872046FFF7A5FD0020F7E770B50446CA
:10441000FFF763FE04F1500000F0EFF8042084F889
:10442000380000F083FA054604F11801644800F0F2
:10443000B5F8284600F07EFA002070BD70B500F097
:1044400075FA06465D48046894F83800012819D1C9
:10445000D4E90601884215D004F11800054600F0A1
:10446000A4F894F83900584901EBC00041680D6088
:104470004168696045602860304600F05BFAFFF7EC
:10448000CEFD02E0304600F055FA002070BD70B558
:10449000044690F83800012802D04FF0FF3070BD7C
:1044A00000F044FA0546022084F838002046FFF761
:1044B00014FE284600F03EFA002070BDF1B500F071
:1044C00035FA05463D4804682046FFF7E0FF04F151
:1044D00050006A460021064600F014F9304600F00C
:1044E000C4F8284600F026FAFFF799FD606B801C9F
:1044F00000D160630020F8BDE0E72DE9F0410446FB
:10450000154611B3012923D002290FD100F00EFA6C
:10451000074694F83800012601280AD0287884F844
:1045200039008640E663384600F004FA0020BDE812
:10453000F0812046FFF7D1FD287884F839008640C5
:104540002046E663FFF7ACFDEDE7BDE8F04105E787
:10455000BDE8F0415AE72DE9F041184F8046386830
:1045600008B1FFF7DBFD194E56F8044F08E0A4F13F
:104570001005082241462846FEF7E9FE40B12468AE
:10458000B442F4D1386808B1FFF7D3FD0020CEE77C
:10459000386808B1FFF7CDFD2846C8E702685160CA
:1045A00002680A60016048607047D0E900124A6002
:1045B000D0E900121160406000607047B800002030
:1045C000C0000020F94100086C05002024000020F4
:1045D0002DE9F8431546DDE908480A4607461E4618
:1045E0000721FFF748FC2346324629463846CDF8D6
:1045F000008000F0ECF8BDE8F88370B5044600F0E8
:1046000095F9054604F1180000F0D1F8284600F0AD
:1046100091F92046FFF756FC002070BD2DE9F843C4
:104620000E460146174698460720089DFFF758FC9E
:10463000040007D043463A463146009500F0C7F8DB
:104640002046D8E70020D6E770B5044600F06EF9A2
:10465000054604F1180000F0AAF8284600F06AF9AF
:104660002046FFF776FC002070BD2DE9F04105469D
:10467000407AC00703D04FF0FF30BDE8F081FDF76E
:1046800094FFA96A0844E86200F050F9574E80464A
:1046900005F118076FF0004134680AE06069EA6AC2
:1046A000801A884204D23946204600F079F802E0A8
:1046B0002468B442F2D1B44203D13946204600F016
:1046C0006FF8687A40F001006872404600F032F9F5
:1046D0000020D2E770B50446407AC0070FD000F042
:1046E00025F9054604F1180000F061F8284600F0AD
:1046F00021F9607A20F001006072002070BD4FF057
:10470000FF3070BD49B1012904D0022908D0032926
:104710000ED109E0806A10600AE01168816207E04A
:10472000417A21F0020102E0417A41F00201417236
:104730000020704770B5FDF738FF054600F0F6F829
:10474000064621E029486FF000410468183CE06A01
:10475000281A88421DD204F1180000F028F8D4E984
:1047600008108847FDF721FF0546607A810708D5C4
:10477000C10706D020F0010060722046FFF775FFE8
:1047800002E020F001006072184800F019F80028DB
:10479000D8D03046BDE8704000F0CCB870477047C4
:1047A0004268116042684A60416008607047D0E921
:1047B00000124A60D0E9001211604060006070474A
:1047C0000168814201D1012070470020704710B577
:1047D000029C24F001044472C0E908120021C0E9DF
:1047E0000A3118304060006010BD0000C800002091
:1047F00070B50546121D22F007004038224C0646CF
:10480000002240F82240521C102AFAD301620021F3
:104810004162816200F13002C1622AC24FF08071B0
:10482000F16370BD10B504461848016819B12046FF
:104830008847002826D016A0E169FEF7B6FD18A02B
:10484000A169FEF7B2FD1AA06169FEF7AEFD1CA0DA
:104850002169FEF7AAFD1EA0E168FEF7A6FD20A0D3
:10486000A168FEF7A2FD22A06168FEF79EFD24A0CC
:104870002168FEF79AFDFFF74CFD014624A0FEF7E4
:1048800094FDFEE710BD0000EFBEADDED0000020BD
:104890007073723A203078253038780A00000000B2
:1048A0002070633A203078253038780A0000000004
:1048B000206C723A203078253038780A00000000E9
:1048C0007231323A203078253038780A0000000002
:1048D0007230333A203078253038780A00000000F2
:1048E0007230323A203078253038780A00000000E3
:1048F0007230313A203078253038780A00000000D4
:104900007230303A203078253038780A00000000C4
:1049100068617264206661756C74206F6E207468C3
:10492000726561643A2025730A000000EFF310807D
:1049300072B6704780F310887047284A1368012BBD
:1049400004D04FF001031360254A1060254A11601E
:1049500025484FF0805101607047EFF3108272B626
:104960001E48016891B14FF0000101601C480168C8
:1049700029B1EFF3098121E9F00F006801601949BD
:1049800009680968B1E8F00F81F3098882F310889B
:104990004EF0040E70471349086011494FF00000B3
:1049A00008600E494FF00100086010484FF47F0185
:1049B000D0F8002041EA020101600B484FF080511D
:1049C000016062B6704700BFEFF3098000B5FFF7E2
:1049D00029FF5DF804EB4EF0040E7047DC00002068
:1049E000D4000020D800002004ED00E020ED00E01D
:1049F00010B510220021A448FEF7F4FBA2482022A3
:104A000000211030FEF7EEFB9F4840220021583075
:104A1000FEF7E8FB9C480022BDE810409BA1303027
:104A2000FEF723B898484FF0FF313030FEF760B8FA
:104A300095483030FEF7B3B810B5FFF7F3FF924852
:104A40000024583002E0641C022C04DA00EB44110C
:104A500089680029F7DC022C0CD000EB44100121FE
:104A600081604FF6FD51018087483030FEF797F89E
:104A7000204610BD4FF0FF34F6E710B5044602287B
:104A800001D3002010BDFFF7CDFF7F48583000EB69
:104A900044142088A0F57D41FD3904D07A48303097
:104AA000FEF77DF8EDE7A068401CA0607648303046
:104AB000FEF775F8204610BD10B50446FFF7B2FFAB
:104AC000A168491EA16003D120222046FEF78AFB7F
:104AD0006D48BDE810403030FEF761B8F8B506000B
:104AE00008780D461DD02F2821D0304601F0C8F996
:104AF0000446284601F0C4F92044801CFEF7DAFE83
:104B00000446304601F0BCF90746284601F0B8F9E2
:104B10003918891C33465FA220460095FEF728FE0F
:104B200009E02F2803D05DA0FEF73FFC29E00846EE
:104B3000FEF729FC04462046014602782E2A26D19B
:104B4000427822B12F2A04D02E2A08D01FE0401C20
:104B50001DE0801C02782F2AEFD1401CFAE78278F2
:104B600012B12F2A02D012E0801C03E0C01C027890
:104B70002F2A08D0491E2246A1421FD21046FEF716
:104B800009FF0020F8BD401CF1E701F8012B10F8E7
:104B9000012B4AB12F2AF8D101F8012B10F8012B73
:104BA0002F2AFBD0401EC8E7002001F80109A142CE
:104BB0000CD00A782F2A08D008E0491E8C42BCD2BB
:104BC00011F8012C2F2AB8D0F7E708702046F8BD5D
:104BD0002DE9F04701460020FFF780FF06004FF067
:104BE000FF390BD000F06EF8050004D0686801783A
:104BF0002F2906D007E03046FEF7CCFE4846BDE838
:104C0000F0874178E1B101F03BF98719FFF70AFF1E
:104C1000DFF87480002408F1580808EB4410C168DC
:104C200031B1A94204D14068394601F093F948B145
:104C3000641C022CF1D314483030FDF7B0FFDAE7E2
:104C40003746E3E73046FEF7A5FE0F483030FDF764
:104C5000A6FF0020D3E770B50C46064601F010F918
:104C60000546204601F00CF9854201D1002070BDB7
:104C7000304601F005F9204401782F29F7D0A042F1
:104C8000F5D0401E70BD00006C06002066736C6F8E
:104C9000636B000025732F25730000007379737414
:104CA000656D20646F6573206E6F7420737570700E
:104CB0006F727420776F726B696E67206469720A15
:104CC000000000002DE9F0474FF0000881464746FC
:104CD000FFF7A8FEDFF8E8A000250AEB05167068CC
:104CE000C8B101F0CDF80446B84214D3B06890B111
:104CF00022464946706801F0E2F860B9012C08D9F3
:104D0000484601F0BDF8A04203D919F804002F2845
:104D100001D1B04627466D1C022DDED3FFF788FE79
:104D20004046BDE8F08770B504460846114600EBE2
:104D3000011303F5DF73002518786A1E802802D05E
:104D400008B1104670BD1879002826D02070DA7A94
:104D5000986862F31F606060DE7BDA6866F31F624A
:104D6000A260420217A0FEF720FBA068C10A0ED085
:104D7000C10A8A0A04D0C1F30902890A1AA302E00F
:104D8000C0F349021AA31CA0FEF70FFB06E041087E
:104D90001BA21DA0FEF709FB00E01546284670BDCA
:104DA00010B50C46FFF78EFF30B181684A691AB121
:104DB0002146BDE8104010474FF0FF3010BD000005
:104DC0007C060020666F756E6420706172745B25CE
:104DD000645D2C20626567696E3A2025642C20731F
:104DE000697A653A2000000047420D0A0000000081
:104DF0004D420D0A0000000025642E256425730035
:104E00004B420D0A000000002564257300000000DD
:104E10002DE9F0410400174625D00020FFF75EFE83
:104E2000060023D0FFF74EFF050022D00020E560EA
:104E30006080C4E90470A061A8684068C0071ED003
:104E40006660A868816961B320468847051E33DA29
:104E50006068FEF79FFD202200212046FEF7C2F980
:104E60002846BDE8F0816FF01500FAE74FF0FF30FB
:104E7000F7E73046FEF78EFD6FF00100F1E73146AF
:104E80006868FFF7E8FE50B131466868FFF7E3FE57
:104E9000FEF779FA60603046FEF77CFDD1E7A0A00E
:104EA000F6E76068FEF776FD202200212046FEF737
:104EB00099F96FF02500D4E72069B90240F08070BD
:104EC000206104D50221618040F000702061002043
:104ED000C7E770B505004FF0000407D0E8688068A8
:104EE000C16919B128468847041E08DB6868FEF7C7
:104EF00051FD202200212846FEF774F9204670BD9E
:104F000010B504000CD0E0688068436A5BB12046AD
:104F10009847002803DA216941F08061216110BDC2
:104F20006FF0150010BD6FF0250010BD10B1438863
:104F3000022B02D06FF015007047C3689B685B6B53
:104F400003B118476FF02500704770B50146002087
:104F5000FFF7C4FD05000FD0FFF7B4FE04000ED02C
:104F60002846FFF735FE68B1A068826B0AB3406837
:104F7000C0070AD0294614E06FF0150070BD6FF02D
:104F8000010418E06FF00F0415E029466068FFF790
:104F900062FE50B129466068FFF75DFE0146A068D9
:104FA000826B20469047044605E0A0685CA1826BB6
:104FB000F7E76FF025042846FEF7ECFC204670BDAD
:104FC00020B1C3689B689B6A1BB118476FF015003E
:104FD00070476FF02500704710B50400C06808D016
:104FE0008068026B42B120469047002800DBA06138
:104FF00010BD6FF0150010BD6FF0250010BD70B52D
:105000000C4601460020FFF769FD060007D0FFF7B8
:1050100059FE050006D030782F2809D00AE04FF05D
:10502000FF3070BD3046FEF7B5FC6FF0010070BD7B
:10503000707868B131466868FFF70DFE40B1A86826
:10504000C36BA3B14068C00717D0224631461CE0AD
:10505000002044F2FF112060A180A060E0604FF4C6
:10506000007020613046FEF795FC002070BD304690
:10507000FEF790FC6FF0250070BD31466868FFF7C1
:10508000EAFD0146A8682246C36B284698470446B5
:105090003046FEF77FFC204670BD2DE9F0410F46FB
:1050A000002501462846FFF719FD06006FF00104B0
:1050B0002DD039460020FFF711FD050027D03046DE
:1050C000FFF700FE04462846FFF7FCFD84421CD192
:1050D000A1680B6C2BB14968C90705D02A46314637
:1050E0000FE06FF0250412E040682946FFF7B3FD9A
:1050F000074631466068FFF7AEFD0146A0683A46B4
:10510000036C20469847044601E06FF011043046D6
:10511000FEF740FC2846FEF73DFC2046A1E60000D5
:105120002F0000002DE9F04104460F46FFF784FCF4
:10513000051E4FF0FF3602DA6FF00B000FE0FFF7AD
:105140009CFC80463A462146FFF762FE041E40461C
:105150000ADAFFF7B1FC4046FFF7AEFC2046FEF747
:1051600029F83046BDE8F081FFF7A6FC2846F9E7AC
:1051700070B5FFF782FC04004FF0FF350CD0FFF74D
:10518000A8FE06462046FFF797FC002E07DA3046B9
:10519000FEF710F8284670BD6FF00800F8E72046CB
:1051A000FFF78AFC002070BD2DE9F0410C46174640
:1051B000FFF763FC05004FF0FF360DD03A4621465D
:1051C000FFF79EFE041E284609DAFFF775FC20460D
:1051D000FDF7F0FF3046C5E76FF00800F8E7FFF78E
:1051E0006BFC2046BEE72DE9F0410C461746FFF761
:1051F00044FC05004FF0FF360DD03A462146FFF73C
:10520000DFFE041E284609DAFFF756FC2046FDF7AC
:10521000D1FF3046A6E76FF00800F8E7FFF74CFC37
:1052200020469FE72DE9F0410C461646FFF725FC86
:1052300005004FF0FF3707D06FF015005EB1012E6B
:1052400005D0022E09D104E06FF0080005E0A9693D
:1052500000E069690C44002C03DAFDF7ABFF384627
:1052600080E721462846FFF7B7FE061E284603DAE8
:10527000FFF722FC3046F0E7FFF71EFC204671E7FF
:1052800010B5FFF70AFF002804DAFDF793FF4FF08F
:10529000FF3010BD002010BD10B5FFF756FE0028EE
:1052A00004DAFDF787FF4FF0FF3010BD002010BD7E
:1052B00010B5FFF7A4FE002803DAFDF77BFF4FF0DF
:1052C000FF3010BD10B50C46FFF7D7FB40B10021F1
:1052D00048F2B6122160A2804288022A07D009E073
:1052E0006FF00800FDF766FF4FF0FF3010BD44F28D
:1052F000FF12A2804269C4E902214FF400712161CA
:10530000FFF7DAFB002010BD10B5FFF749FD0028BC
:1053100003DAFDF74FFF4FF0FF3010BD70B50446C4
:10532000FFF78AFB411C4FF0FF3510D0FFF7A5FBBC
:105330000646844A2146FFF76BFD041E304609DA13
:10534000FFF7BAFB2046FDF735FF284670BD6FF02A
:105350000B00F8E7FFF7BDFD3046FFF7ADFB00207F
:1053600070BD10B5FFF7F1FD002804DAFDF722FF4C
:105370004FF0FF3010BD002010BD2DE9F041054673
:10538000FFF75AFB0446401C1BD02046FFF775FB75
:1053900006464FF400122946FFF73AFD051E1ADBB8
:1053A0004FF403773846FEF785FA05000CD03A46ED
:1053B0000021FDF717FF2C603046FFF77DFB2846E4
:1053C000D0E66FF00B000DE03046FFF782FD30466F
:1053D000FFF772FBF0E73046FFF76EFB3046FFF752
:1053E0006BFB2846FDF7E6FE0020BBE670B50446E1
:1053F0000068FFF742FB06001BD0D4F8040240B15E
:10540000D4F80812A21D8A5A1144C4F80812814225
:1054100017DB40F2FF12211D3046FFF787FD051E06
:105420000ADC3046FFF748FB2846FDF7C3FE0020A4
:1054300070BD6FF00800F8E7C4F804020020C4F85B
:1054400008023046FFF738FBD4F80802241D204438
:1054500070BD10B504460068FFF70FFB50B18169BD
:10546000D4F80422891AD4F808228C18FFF724FBF8
:10547000204610BD6FF00800FDF79CFE002010BD17
:1054800070B504460E460068FFF7F7FA05000ED027
:105490003146FFF7A1FD002804DB0020C4F8080214
:1054A000C4F804022846BDE87040FFF705BBBDE81C
:1054B00070406FF00800FDF77DBE70B504460068CF
:1054C000FFF7DBFA05000ED00021FFF785FD00286D
:1054D00004DB0020C4F80802C4F804022846BDE832
:1054E0007040FFF7E9BABDE870406FF00800FDF7C3
:1054F00061BE2DE9F04106460068FFF7BEFA0400E0
:105500004FF0FF3712D0FFF7E4FC05462046FFF7C7
:10551000D3FA2046FFF7D0FA3046FEF73BFA002DCB
:1055200007DA2846FDF746FE38461BE66FF008000E
:10553000F8E7002016E610B5044603A0FDF735FF96
:10554000204610BD000120005741524E494E473AB7
:10555000206E6F7420737570706F727420776F7225
:105560006B696E67206469726563746F72790A0093
:10557000324810B5016841F0010101604168304ACC
:105580001140416001682F4A11400160016821F417
:1055900080210160416821F4FE0141604FF41F0148
:1055A000816000F005F828494FF00060086010BDE8
:1055B000224900200A6842F480320A604FF4A06356
:1055C0000A6800F1010012F4003F01D19842F7D1BE
:1055D0000868800330D51D48026842F0100202605E
:1055E000026822F003020260026842F002020260D6
:1055F0004868486048684860486840F4806048608F
:10560000486820F47C104860486840F4E81048601E
:10561000086840F08070086008688001FCD5486820
:1056200020F003004860486840F002004860486885
:10563000C0F381000228FAD1704700000010024038
:105640000000FFF8FFFFF6FE08ED00E0002002403A
:1056500070B500250446212818D0312C16D0392CDD
:1056600014D0412C12D0612C10D07A2C0ED07B2C6F
:105670000CD07C2C0AD07D2C08D07E2C06D07F2C20
:1056800004D040F234515CA0FCF700FE6009694987
:1056900001280BD002280BD0486A04F01F01012218
:1056A0008A40024200D00125284670BD0868F4E710
:1056B000086AF2E710B5040008D0012C06D0042CCB
:1056C00004D04FF450714CA0FCF7E0FD5A48002183
:1056D000017000F82019012C05D0042C02D10521FD
:1056E00080F8201010BD0121FAE710B50446B0F58E
:1056F000807F0AD0B4F5007F07D0B4F5407F04D096
:1057000040F272313CA0FCF7C1FD4A48016A2143D6
:10571000016210BD10B5040006D0012C04D04FF476
:10572000607135A0FCF7B2FD4448046010BD70B54F
:10573000044640F257500D4634EA000000D124B927
:1057400040F22B412CA0FCF7A1FD3A4E4DB1012DAA
:1057500004D040F22C4128A0FCF798FD706920434A
:1057600001E07069A043706170BD70B504463448B3
:105770000D46044200D124B940F24A411EA0FCF774
:1057800085FD2C4E4DB1012D04D040F24B411AA0A5
:10579000FCF77CFDB069204301E0B069A043B06133
:1057A00070BD70B5044627480D46044200D124B9A7
:1057B00040F2694110A0FCF769FD1E4E4DB1012D6C
:1057C00004D040F26A410CA0FCF760FDF069204370
:1057D00001E0F069A043F06170BD10B5040006D08F
:1057E000012C04D04FF49B6103A0FCF74FFD13483C
:1057F000001D046010BD00004C6962726172696531
:10580000735C53544D3332463130785F5374645077
:1058100065726970685F4472697665725C73726301
:105820005C73746D3332663130785F7263632E63FC
:105830000000000000100240201002403C044242E0
:105840000200C0FF0036018110B5040005D0012C14
:1058500003D07F2102A0FCF719FD1048046210BD9F
:105860004C69627261726965735C53544D333246A0
:105870003130785F5374645065726970685F447248
:10588000697665725C7372635C73746D3332663112
:1058900030785F7077722E630000000000000E42C7
:1058A00010B50120FFF799FFBDE810400020FFF779
:1058B00094BF70B504460D46042855D0082C53D02B
:1058C0000C2C51D0102C4FD0142C4DD0182C4BD068
:1058D0001C2C49D0202C47D0242C45D0282C43D038
:1058E000402C41D0442C3FD0482C3DD04C2C3BD0B8
:1058F000502C39D0542C37D0582C35D05C2C33D088
:10590000602C31D0642C2FD0682C2DD06C2C2BD057
:10591000702C29D0742C27D0782C25D07C2C23D027
:10592000802C21D0842C1FD0882C1DD08C2C1BD0F7
:10593000902C19D0942C17D0982C15D09C2C13D0C7
:10594000A02C11D0A42C0FD0A82C0DD0AC2C0BD097
:10595000B02C09D0B42C07D0B82C05D0BC2C03D067
:10596000E32131A0FCF792FC3E48055170BD10B513
:105970000446042855D0082C53D00C2C51D0102CA0
:105980004FD0142C4DD0182C4BD01C2C49D0202C8F
:1059900047D0242C45D0282C43D0402C41D0442C37
:1059A0003FD0482C3DD04C2C3BD0502C39D0542CDF
:1059B00037D0582C35D05C2C33D0602C31D0642CAF
:1059C0002FD0682C2DD06C2C2BD0702C29D0742C7F
:1059D00027D0782C25D07C2C23D0802C21D0842C4F
:1059E0001FD0882C1DD08C2C1BD0902C19D0942C1F
:1059F00017D0982C15D09C2C13D0A02C11D0A42CEF
:105A00000FD0A82C0DD0AC2C0BD0B02C09D0B42CBE
:105A100007D0B82C05D0BC2C03D0F62102A0FCF78F
:105A200035FC1048005B10BD4C696272617269659B
:105A3000735C53544D3332463130785F5374645045
:105A400065726970685F4472697665725C737263CF
:105A50005C73746D3332663130785F626B702E63C5
:105A600000000000006C00402248018841F0100155
:105A7000018070471F48018821F0100101807047A4
:105A80001C48183000881B491431098840EA01403D
:105A9000704700B50246FFF7E7FF1649100C1431B6
:105AA0000880081D02805DF804EBE3E710B50446AA
:105AB000B0F5801F03D3A3210FA0FCF7E7FBFFF78E
:105AC000D3FF0C49C4F30340091D0880081D04805E
:105AD000BDE81040CEE7074801888906FCD570472D
:105AE0000448018821F00801018001880907FCD5DC
:105AF00070470000042800404C6962726172696559
:105B0000735C53544D3332463130785F5374645074
:105B100065726970685F4472697665725C737263FE
:105B20005C73746D3332663130785F7274632E63E8
:105B3000000000002DE9F04104466B4800260D46A8
:105B4000844215D06948844212D0694884420FD0FB
:105B5000684884420CD06848844209D0674884422F
:105B600006D06748844203D0B22166A0FCF78EFBC2
:105B7000E87888B104280FD028280DD048280BD009
:105B8000142809D0102807D01C2805D0182803D0C5
:105B9000B3215CA0FCF77AFB288818B9B42159A07E
:105BA000FCF774FBE87800F00F07C0060CD5A87866
:105BB000012807D0022805D0032803D0BB2151A01B
:105BC000FCF764FBA878074328884FF00F0C10F00F
:105BD000FF0F4FF0010E1AD021682A880EFA06F046
:105BE000024082420FD1B2000CFA02F3994307FA45
:105BF00002F21143EA78282A02D0482A02D002E0B1
:105C0000606100E02061761C082EE6D321602888C0
:105C1000FF281DD96268002101F108030EFA03F084
:105C20002B88034083420FD18E000CFA06F322EA40
:105C3000030307FA06F21A43EB78282B00D16061C0
:105C4000EB78482B00D12061491C0829E4D362601D
:105C5000BDE8F08170B5044623480D46844216D055
:105C60002248844213D02248844210D021488442E2
:105C70000DD0214884420AD02048844207D02048D1
:105C8000844204D040F269111EA0FCF7FFFA25B946
:105C90004FF4B5711BA0FCF7F9FA256170BD70B522
:105CA000044611480D46844216D01048844213D051
:105CB0000F48844210D00F4884420DD00E488442D1
:105CC0000AD00E48844207D00D48844204D040F2E6
:105CD00079110CA0FCF7DAFA25B94FF4BD7109A0CF
:105CE000FCF7D4FA656170BD00080140000C01406A
:105CF000001001400014014000180140001C014048
:105D0000002001404C69627261726965735C535492
:105D10004D3332463130785F537464506572697028
:105D2000685F4472697665725C7372635C73746DEC
:105D30003332663130785F6770696F2E6300000020
:105D400070B50446C0780F2528B1012803D075210D
:105D50002BA0FCF79BFA6078102803D3762128A0AB
:105D6000FCF794FAA078102803D3772124A0FCF73D
:105D70008DFAE07801214FF0E022E0B12C48006874
:105D8000637800F4E060C0F5E060000AC0F104064A
:105D9000C540A078B340284018432378254D000122
:105DA0005855207800F01F039940400902EB80000D
:105DB000C0F8001170BD207800F01F039940400921
:105DC00002EB8000C0F8801170BD70B504460D462E
:105DD000B0F1005F06D0B4F1006F03D09F2108A09E
:105DE000FCF754FA1448854203D3A02104A0FCF721
:105DF0004DFA124805400E482543001F056070BD4E
:105E00004C69627261726965735C53544D333246FA
:105E10003130785F5374645065726970685F4472A2
:105E2000697665725C7372635C6D6973632E63007F
:105E30000CED00E000E400E0FFFF0F0080FFFF1F1B
:105E40000948804709480047FEE7FEE7FEE7FEE70E
:105E5000FEE7FEE7FEE7FEE7FEE7FEE7044805494A
:105E6000054A064B704700007155000831210008B3
:105E700068070020680D00206809002068090020DC
:105E800010B5431C02E010F8011B71B18107FAD173
:105E90004FF0013202C88C1A8C4314EAC211F9D0B7
:105EA000C01A0A0603D0C01E10BDC01A10BD0A04D5
:105EB00001D0801E10BD0902FCD0401E10BD40EA7A
:105EC000010370B59B072ED14FF00136042A2AD367
:105ED00008C810C9121F9D1B9D4315EAC61517D08F
:105EE000D8B2E1B2401A50EA056110D198B2A1B21D
:105EF000401A50EA05410AD123F07F4024F07F4147
:105F0000401A50EA052102D1180EA0EB146070BDB2
:105F1000A342DBD018BA21BA884201D9012070BD52
:105F20004FF0FF3070BD0AB9002070BD10F8013B82
:105F300011F8014B63B1A3420AD1521E08D010F8E8
:105F4000013B11F8014B1BB1A34201D1521EEDD10F
:105F5000181B70BD4FF0013C50F8042B51F8043B66
:105F60009A4221D1A2EB0C03934313EACC1317D12D
:105F700050F8042B51F8043B9A4215D1A2EB0C03C4
:105F8000934313EACC130BD150F8042B51F8043B84
:105F90009A4209D1A2EB0C03934313EACC13DBD052
:105FA0004FF00000704700BFD01A01BAB1FA81F17A
:105FB00001F0180122FA01F0CB40C1F12001DBB25F
:105FC000C0B2C01A2CFA01F3D11A914311EAC311DD
:105FD000E6D17047704770477047754600F028F863
:105FE000AE4605006946534620F00700854618B0C6
:105FF00020B5FFF733FFBDE820404FF000064FF01B
:1060000000074FF000084FF0000B21F00701AC46ED
:10601000ACE8C009ACE8C009ACE8C009ACE8C0090C
:106020008D4670470446AFF300802046FCF7C9F860
:106030000048704704070020004870470807002008
:1060400001491820ABBEFEE726000200704710B5DC
:10605000FFF7F2FF4FF00001016010BD72745F7432
:1060600069636B5F6765740072745F7469636B5F0B
:1060700066726F6D5F6D696C6C697365636F6E647A
:106080000072745F6465766963655F7265676973E2
:106090007465720072745F6465766963655F756EBE
:1060A00072656769737465720072745F646576699E
:1060B00063655F66696E640072745F6465766963C8
:1060C000655F6F70656E0072745F646576696365A5
:1060D0005F636C6F73650072745F64657669636596
:1060E0005F726561640072745F6465766963655FA1
:1060F00077726974650072745F6465766963655F61
:10610000636F6E74726F6C0072745F64657669633E
:10611000655F7365745F72785F696E6469636174EB
:10612000650072745F6465766963655F7365745F4B
:1061300074785F636F6D706C6574650072745F7303
:10614000656D5F696E69740072745F73656D5F641D
:1061500065746163680072745F73656D5F63726517
:106160006174650072745F73656D5F64656C6574FE
:10617000650072745F73656D5F74616B6500727446
:106180005F73656D5F74727974616B650072745FC3
:1061900073656D5F72656C656173650072745F73C2
:1061A000656D5F636F6E74726F6C0072745F6D7596
:1061B0007465785F696E69740072745F6D7574657B
:1061C000785F6465746163680072745F6D7574658F
:1061D000785F6372656174650072745F6D75746574
:1061E000785F64656C6574650072745F6D75746565
:1061F000785F74616B650072745F6D757465785F4C
:1062000072656C656173650072745F6D7574657835
:106210005F636F6E74726F6C0072745F6576656E2B
:10622000745F696E69740072745F6576656E745F21
:106230006465746163680072745F6576656E745F2F
:106240006372656174650072745F6576656E745F14
:1062500064656C6574650072745F6576656E745F05
:1062600073656E640072745F6576656E745F7265E7
:1062700063760072745F6576656E745F636F6E74CB
:10628000726F6C0072745F6D715F696E6974007219
:10629000745F6D715F6465746163680072745F6DD3
:1062A000715F6372656174650072745F6D715F64C4
:1062B000656C6574650072745F6D715F73656E64A3
:1062C0000072745F6D715F757267656E74007274D1
:1062D0005F6D715F726563760072745F6D715F638D
:1062E0006F6E74726F6C0072745F696E7465727237
:1062F0007570745F656E7465720072745F696E7438
:106300006572727570745F6C656176650072745F3A
:10631000696E746572727570745F6765745F6E65BF
:1063200073740072745F68775F696E7465727275FA
:1063300070745F64697361626C650072745F687722
:106340005F696E746572727570745F656E61626CA0
:10635000650072745F6765745F6572726E6F00725C
:10636000745F7365745F6572726E6F005F72745FE5
:106370006572726E6F0072745F6D656D7365740027
:1063800072745F6D656D6370790072745F6D656DB9
:106390006D6F76650072745F6D656D636D70007210
:1063A000745F7374727374720072745F7374726367
:1063B000617365636D700072745F7374726E637085
:1063C000790072745F7374726E636D700072745FC3
:1063D000737472636D700072745F7374726C656E47
:1063E0000072745F7374726475700072745F7368A6
:1063F0006F775F76657273696F6E0072745F736E2C
:106400007072696E74660072745F76737072696E12
:1064100074660072745F737072696E746600727471
:106420005F6B7072696E74660072745F6D616C6C24
:106430006F635F616C69676E0072745F6672656539
:106440005F616C69676E003031323334353637380E
:106450003961626364656600303132333435363712
:1064600038394142434445460072745F6D616C6C3B
:106470006F630072745F7265616C6C6F630072743D
:106480005F63616C6C6F630072745F667265650058
:1064900072745F6D705F696E69740072745F6D70A5
:1064A0005F6465746163680072745F6D705F6372CE
:1064B000656174650072745F6D705F64656C6574AE
:1064C000650072745F6D705F616C6C6F63007274F5
:1064D0005F6D705F667265650072745F6F626A659A
:1064E00063745F6765745F696E666F726D6174690E
:1064F0006F6E0000000100020001000300010002B5
:10650000000100040001000200010003000100027C
:10651000000100050001000200010003000100026B
:10652000000100040001000200010003000100025C
:10653000000100060001000200010003000100024A
:10654000000100040001000200010003000100023C
:10655000000100050001000200010003000100022B
:10656000000100040001000200010003000100021C
:106570000001000700010002000100030001000209
:1065800000010004000100020001000300010002FC
:1065900000010005000100020001000300010002EB
:1065A00000010004000100020001000300010002DC
:1065B00000010006000100020001000300010002CA
:1065C00000010004000100020001000300010002BC
:1065D00000010005000100020001000300010002AB
:1065E000000100040001000200010003000100029C
:1065F00000010072745F7468726561645F696E693E
:10660000740072745F7468726561645F73656C6650
:106610000072745F7468726561645F737461727430
:1066200075700072745F7468726561645F6465742C
:106630006163680072745F7468726561645F63723D
:10664000656174650072745F7468726561645F642B
:10665000656C6574650072745F7468726561645F0F
:106660007969656C640072745F7468726561645FF7
:1066700064656C61790072745F7468726561645FEF
:10668000636F6E74726F6C0072745F7468726561B0
:10669000645F73757370656E640072745F746872A2
:1066A0006561645F726573756D650072745F7468AF
:1066B000726561645F74696D656F75740072745F93
:1066C0007468726561645F66696E640072745F7499
:1066D000696D65725F696E69740072745F74696D6B
:1066E00065725F6465746163680072745F74696D7C
:1066F00065725F6372656174650072745F74696D61
:1067000065725F64656C6574650072745F74696D51
:1067100065725F73746172740072745F74696D6521
:10672000725F73746F700072745F74696D65725F0D
:10673000636F6E74726F6C006F70656E00636C6F68
:1067400073650072656164007772697465006C73CB
:1067500065656B0072656E616D6500756E6C696E66
:106760006B00737461740066737461740073746198
:10677000746673006D6B64697200726D6469720097
:106780006F70656E6469720072656164646972003D
:1067900074656C6C646972007365656B6469720022
:1067A000726577696E6464697200636C6F736564A7
:1067B000697200676574637764000000AB250008A8
:1067C0005C600008D72500086860000841260008C2
:1067D000816000086D26000894600008F525000817
:1067E000A9600008B3260008B86000080F27000859
:1067F000C760000829270008D76000084327000861
:10680000E66000085D270008F660000867270008BA
:10681000086100086D27000822610008232900088C
:106820003C61000845290008486100085929000812
:106830005661000879290008646100088D29000864
:1068400072610008FB2900087E610008FF2900082A
:106850008D6100083D2A00089C6100086B2A000831
:10686000AB6100089B2A0008B9610008AF2A000844
:10687000C9610008DD2A0008D9610008F12A000872
:10688000E96100089F2B0008F76100083B2C000815
:1068900008620008412C0008196200085F2C0008FB
:1068A00027620008732C000837620008932C000848
:1068B00047620008A72C000857620008352D000821
:1068C00065620008E52D000873620008132E0008B9
:1068D00084620008732E00088F620008A12E000851
:1068E0009C620008872E0008A96200080F2F00088C
:1068F000B6620008912F0008C16200080D30000840
:10690000CE620008F3300008D96200086531000843
:10691000E76200087B310008FA6200089131000844
:106920000D6300082D49000823630008354900085D
:106930003B6300089D31000852630008B531000830
:106940005F630008CF3100086C630008E531000880
:106950007663000829320008806300086F3200085F
:106960008A6300089D32000895630008C932000858
:106970009F630008FF320008A9630008293300085C
:10698000B76300084F330008C26300086F33000884
:10699000CD630008B9320008D763000887330008C8
:1069A000E1630008AD330008EB63000871370008AD
:1069B000FB63000883370008076400088D37000870
:1069C00013640008AB3300081E6400089B370008FE
:1069D00029640008CD37000839640008B53800087C
:1069E00069640008E5390008736400089D3A0008EE
:1069F0007E6400089539000888640008053B00089B
:106A000090640008673B00089B640008A73B0008EF
:106A1000A8640008133C0008B5640008593C00084D
:106A2000C2640008E73C0008CE6400086F3E00081E
:106A3000D9640008E3420008F36500081343000826
:106A4000026600085D430008116600088B430008D9
:106A500023660008C7430008346600080D44000898
:106A6000456600083D44000856660008F9440008E1
:106A700066660008FB440008766600088F4400083C
:106A800088660008194300089A6600085142000809
:106A9000AB66000857450008BD660008D1450008F0
:106AA000CC660008FB450008DA6600081D460008B1
:106AB000EA66000849460008FA6600086B460008C6
:106AC0000A670008D546000819670008054700084E
:106AD0002767000825510008386700087151000831
:106AE0003D670008A951000843670008E751000806
:106AF00048670008255200084E67000881520008C8
:106B000054670008995200085B670008B1520008FA
:106B100062670008C552000867670008095300084B
:106B20006D6700081D530008746700086353000870
:106B30007A6700087B53000880670008ED5300085F
:106B400088670008535400089067000881540008C3
:106B500098670008BB540008A0670008F3540008B9
:106B6000AA67000837550008B36700088C6B000857
:106B700000000020F40000006C210008806C000878
:106B8000F4000020740C00008821000800000000C0
:106B900000000000000000000000000000000000F5
:106BA00000000000000000000000000000000000E5
:106BB00000000000280000202800002088000000BD
:106BC00001000000380000203800002024000000F0
:106BD00002000000480000204800002028000000BB
:106BE000030000005800002058000020240000008E
:106BF0000400000068000020680000203800000049
:106C00000500000078000020780000203C00000013
:106C100006000000880000208800002044000000DA
:106C200007000000980000209800002030000000BD
:106C300008000000A8000020A8000020C8000000F4
:106C40000000000000000000000000000000000044
:106C500000000000C8000020C80000200000000064
:106C600000000000000000000000000000A24A0434
:106C700000000000000000000102030406070809EC
:04000005080021319D
:00000001FF
