:020000040800F2
:10200000104B0020D1A400088D9C0008A93F0008B7
:102010008F9C0008919C0008939C00080000000021
:10202000000000000000000000000000959C000877
:10203000979C000800000000413F0008999C0008A0
:10204000CDA50008D1A50008D5A50008D9A5000890
:10205000DDA50008E1A50008E5A50008E9A5000840
:10206000EDA50008F1A50008F5A50008F9A50008F0
:10207000A19C000801A6000805A6000809A6000802
:102080000DA6000811A6000815A6000819A600084C
:102090001DA6000821A6000825A6000829A60008FC
:1020A0002DA6000831A6000835A6000839A60008AC
:1020B0003DA6000841A6000845A6000849A600085C
:1020C0004DA6000851A6000855A6000859A600080C
:1020D0005DA60008C39C0008D59C0008D79C00089A
:1020E0006DA6000871A6000875A6000879A600086C
:1020F0007DA6000881A6000885A6000889A600081C
:102100008DA6000891A6000895A6000899A60008CB
:10211000E99C0008A1A60008A5A60008A9A6000839
:10212000ADA60008B1A60008B5A60008B9A600082B
:1021300080B50121182000F0A6FF3C20ADF800007A
:1021400003208DF8020048208DF8030000A9DFF875
:10215000100C01F05FF84FF48050ADF80000032040
:102160008DF8020010208DF8030000A9DFF8A80CFC
:1021700001F050F801BD80B5DFF8E40B01F002F981
:10218000C0F3830090F00F00C0B202BD10B5040090
:10219000FFF7F1FFE4B2A0420AD14FF4967001F0CC
:1021A00012FCFFF7E8FFE4B2A04201D1012000E0F9
:1021B000002010BD80B5DFF8AC0B002101700022BB
:1021C0000221DFF8A40B0068DFF89C3B1B689B6BC7
:1021D000984700220121DFF8900B0068DFF8883B68
:1021E0001B689B6B9847DFF8340C006801F01CFDFE
:1021F00001BD10B40022002303E0DBB21C5CA21876
:102200005B1CDBB2C9B28B42F7D31000C0B210BC6A
:10221000704710B582B0DFF84C1B0978032934D21F
:10222000DFF8401B097802291BD2DFF8381B097838
:10223000DFF8EC2B895CC0B288420DD1DFF8241B9B
:102240000978DFF8E02B8854DFF8180B0078401C81
:10225000DFF8101B087088E0DFF8080B0021017020
:1022600083E0DFF8001B0978DFF8B82B8854DFF82B
:10227000F40A0078401CDFF8EC1A0870DFF8A40BB1
:102280008078DFF8A41B08706FE0DFF8D81A0978AF
:10229000DFF8902B8854DFF8CC0A0078401CDFF878
:1022A000C41A0870DFF8BC0A0078DFF87C1B0978D4
:1022B00088425AD3DFF8700B0078411EC9B2DFF8AC
:1022C000640BFFF796FFDFF8601B0978DFF8542BEB
:1022D000891811F8011CC0B2884243D1DFF8440BC1
:1022E000C078AB2813D0AD283CD1502001F06BFB57
:1022F00006208DF80000012300AA0021DFF8300B32
:102300000068DFF82C4B2468646BA0472AE0DFF8F4
:10231000140B0079DFF80C1B4979090451EA0060BD
:10232000DFF8001B897950EA0120DFF8F81AC97933
:1023300001432023DFF8FC2ADFF8FC0A0068DFF8FD
:10234000F84A2468646BA04706208DF8000001233A
:1023500000AA0021DFF8D80A0068DFF8D44A246810
:10236000646BA0470020FFF725FF13BD10B582B0B6
:10237000002400208DF80000FFF7FDFEC0B2012808
:102380000FD1C82001F01FFBFFF7F5FE01281CD17B
:10239000DFF8A80A02210170FFF7EDFEC007FBD4A9
:1023A0002EE0C0B2042810D14FF4FA6001F00BFB0C
:1023B000FFF7E1FE042808D1DFF8800A012101704F
:1023C000FFF7D9FE4007FBD41AE0012300AA002141
:1023D000DFF894090068DFF890492468246BA0476F
:1023E0000400002C09D09DF80000FFF712FFDFF871
:1023F0002C0A006801F0E4FB02E0142001F0E3FA8B
:1024000013BDD2B2012A06D1C9B2C0B2401E814268
:1024100005DA491C03E0C9B2012900D3491E0800AE
:10242000C0B2704770B594B0002400252FE0492257
:10243000002100A801F064FC492300AAEDB25FF47A
:10244000802000FB05F1DFF8F0090068DFF8E8699B
:102450003668366BB04700A8016845F2AA5291422F
:1024600014D14022011DE4B24020DFF8D43900FB32
:10247000043001F04FFCE4B2DFF8C809EDB25FF4BC
:10248000802101FB05F140F82410641C6D1CEDB2A5
:10249000082DCCD32000C0B214B070BD10B50024FC
:1024A000FFF769FE0400E4B2002CF9D0642001F0CB
:1024B0008AFAFFF760FEE4B28442F1D12000C0B294
:1024C00010BD2DE9F8435FF0000800240025032625
:1024D00000275FF000091023E4B2DFF86C0910EB6D
:1024E00004125FF0FF31DFF864090068DFF85CC9AF
:1024F000DCF800C0DCF834C0E04722E0FFB2022F75
:1025000019D100222900C9B23000C0B2FFF779FF0B
:1025100005001023EDB2DFF8380910EB05125FF06B
:10252000FF31DFF828090068DFF820C9DCF800C0B7
:10253000DCF834C0E0475FF000094FF47A7001F036
:1025400042FAFFF7ABFF81465FFA89F9B9F1040F50
:1025500040F08D80FFB2002F4FD1E4B2002C37D174
:10256000FFF760FF0600EDB2DFF8D80850F825004D
:102570005FEA90482023CEA25FF0FF31DFF8CC085D
:102580000068DFF8C8783F687F6BB84703235FFABD
:1025900088F8DFF8C00810EB88020221DFF8AC08E9
:1025A0000068DFF8A8783F687F6BB8472023EDB25A
:1025B0004020DFF88C1800FB05120521DFF88C089D
:1025C0000068DFF888783F687F6BB8470127B2E77B
:1025D000DFF8840805681023EDB2DFF8740810EB0B
:1025E00005125FF0FF31DFF864080068DFF85C78FF
:1025F0003F687F6BB84702279DE7FFB2012F29D1C3
:10260000EDB2DFF8400850F82500DFF850180860F8
:102610004022EDB24020DFF8281800FB0511DFF85A
:10262000400801F077FBDFF8140800210170202337
:10263000DFF82C285FF0FF31DFF810080068DFF8C2
:102640000C482468646BA0474FF47A7001F0BBF922
:10265000BDE8F183FFB2022F7FF46DAFDFF8F8071A
:10266000EDB20560DFF8D40700210170DFE75FFA03
:1026700089F9B9F1080F04D1DFF8C0070021017012
:10268000D5E75FFA89F9B9F1010F40F08180FFB217
:10269000002F19D101222100C9B20220FFF7B1FE9B
:1026A00004001023E4B2DFF8A00710EB04125FF07F
:1026B000FF31DFF898070068DFF890C7DCF800C04A
:1026C000DCF834C0E04736E7FFB2012F41D10122E8
:1026D0002900C9B23000C0B2FFF793FE0500EDB289
:1026E000DFF8600750F825005FEA9048202370A2C9
:1026F0005FF0FF31DFF854070068DFF850C7DCF8FF
:1027000000C0DCF834C0E04703235FFA88F8DFF844
:10271000440710EB88020221DFF830070068DFF879
:102720002CC7DCF800C0DCF834C0E0472023EDB251
:102730004020DFF80C1700FB05120521DFF80C071D
:102740000068DFF808C7DCF800C0DCF834C0E047F8
:10275000F1E6FFB2022F7FF4EEAE01222900C9B2EA
:102760003000C0B2FFF74DFE05001023EDB2DFF8D8
:10277000E00610EB05125FF0FF31DFF8D0060068CD
:10278000DFF8C8C6DCF800C0DCF834C0E047D2E6A9
:102790005FFA89F9B9F1020F7FF4CDAEFFB2002FD5
:1027A00019D100222100C9B20220FFF72AFE04003D
:1027B0001023E4B2DFF8900610EB04125FF0FF3153
:1027C000DFF888060068DFF884C6DCF800C0DCF8B3
:1027D00034C0E047AFE6FFB2012F7FF48FAE002296
:1027E0002900C9B23000C0B2FFF70BFE0500EDB200
:1027F000DFF8500650F825005FEA904820232CA20D
:102800005FF0FF31DFF844060068DFF840C6DCF80F
:1028100000C0DCF834C0E04703235FFA88F8DFF833
:10282000340610EB88020221DFF820060068DFF88A
:102830001CC6DCF800C0DCF834C0E0472023EDB251
:102840004020DFF8FC1500FB05120521DFF8FC0530
:102850000068DFF8F8C5DCF800C0DCF834C0E047F9
:1028600069E6F8B50C0015001E00002703E0012002
:1028700001F0A9F87F1CB74216D2012322000021E3
:10288000DFF8E0050068DFF8DCC5DCF800C0DCF844
:1028900030C0E0470028EAD06D1EEDB2002D01D116
:1028A000012002E0641CE5E70020F2BD000000000A
:1028B0002D3E0000FEB514002023DFF8A4255FF0B4
:1028C000FF31DFF888050068DFF880552D686D6BF3
:1028D000A847C82001F077F800220121DFF86C0535
:1028E0000068DFF868351B689B6B9847002504E09B
:1028F0004FF4967001F067F86D1CA54280F0DC8003
:10290000DFF864250321DFF85C050068DFF8543543
:102910001B689B6B98470723DFF850250021DFF8E1
:1029200044050068DFF83C653668766BB0474FF4C5
:10293000967001F048F8DFF8200500681421DFF8F0
:10294000302501FB00220321DFF818050068DFF8BD
:1029500014351B689B6B9847002600E0761C282ED8
:1029600043D2DFF810050088ADF80000012300AA6B
:102970000021DFF8F0040068DFF8E8743F687F6B3F
:10298000B847642001F0F2F901230DF101020021A2
:10299000DFF8D0040068DFF8CC743F687F6BB8477D
:1029A000012001F010F80220FFF7F0FB0028D5D03D
:1029B00000220321DFF894040068DFF890341B68DC
:1029C0009B6B98472023DFF898245FF0FF31DFF8F6
:1029D0007C040068DFF874442468646BA047DFF867
:1029E0005C0400210170002067E000220421DFF870
:1029F00074040068DFF86C341B689B6B98470026F2
:102A000000E0761C052EBFF473AF0523DFF86824C1
:102A10000021DFF850040068DFF848743F687F6BDE
:102A2000B8474FF4C873012201A9DFF838040068E1
:102A3000FFF717FF00281DD09DF8040043280FD191
:102A400000208DF802000DF102020221DFF8FC03E4
:102A50000068DFF8F8331B689B6B984701202CE077
:102A600000220421DFF8FC030068DFF8F8331B685C
:102A70009B6B98470220FFF789FB0028C1D00022FA
:102A80000321DFF8C8030068DFF8C0331B689B6BC5
:102A900098472023DFF8C8235FF0FF31DFF8AC034D
:102AA0000068DFF8A8432468646BA047DFF88C0354
:102AB00000210170002000E00020FEBD10B40022C3
:102AC000002303E00478A218401C5B1C0C00E4B255
:102AD0009BB2A4B2A342F5D3100080B210BC7047E1
:102AE000F0B5B7B00600012400270025492301AA4C
:102AF0003100DFF844030068DFF83CC3DCF800C0B5
:102B0000DCF830C0E0474936DDF84900002800F025
:102B10009D800220FFF73AFB002804D0C74800211F
:102B20000170002092E001208DF850008DF8514096
:102B3000E4B2E0438DF85200DDF84900471B812FD5
:102B40000AD380230DF153023100BB480068BA4F0D
:102B50003F683F6BB84714E03B000DF15302310072
:102B6000B5480068DFF8D0C2DCF800C0DCF830C03F
:102B7000E047D7F18002002114A83818C01C01F0EA
:102B8000BFF880210DF15300FFF798FF80B2010AD2
:102B90008DF8D3108DF8D400002703E0642000F0F6
:102BA00012FF7F1CFFB2032F34D200220421AD4854
:102BB0000068AC4B1B689B6B9847852314AA0021C7
:102BC000A8480068DFF89CC2DCF800C0DCF834C01C
:102BD000E0474FF42F73012200A9A2480068FFF7D5
:102BE00040FE0028DAD09DF80000062817D1641CAA
:102BF000803600278035642000FB05F0DDF84910A1
:102C0000B0FBF1F2D2B20221904800688F4B1B68F2
:102C10009B6B9847FFB2032F05D3002016E064207A
:102C200000F0D1FEBDE7DDF849008542FFF471AF49
:102C300004208DF85000012314AA0021894800685F
:102C4000884C2468646BA0470120FFE737B0F0BDD3
:102C500010B5C8225FF4E1314FF41660FFF72AFE89
:102C6000002835D07D480068FFF73AFF002817D0CC
:102C70008248012101700022032174480068734BCF
:102C80001B689B6B9847642000F09DFE10237C4AD4
:102C900010216E4800686D4C2468646BA0472EE0DC
:102CA0007648002101700022032168480068674BC4
:102CB0001B689B6B9847642000F085FE1023714AC7
:102CC000102162480068614C2468646BA04716E0DC
:102CD0006A4800210170002203215C4800685B4BB8
:102CE0001B689B6B9847642000F06DFE1023654ABB
:102CF000102156480068554C2468646BA04700209A
:102D000000F004F84D480021017010BD38B50125D0
:102D1000002406E0E4B25C4830F8140000F053FEF2
:102D2000641CE4B2082C1AD2EDB2002D06D04FF488
:102D30008051394800F04DFB002505E04FF48051EB
:102D4000354800F075FB01254C4800780028E1D09B
:102D5000E4B24E4830F8140000F035FEE0E731BD33
:102D6000001001400E0B00203004002038B533481D
:102D700000210170FFF7DCF9454801F051F82E49B8
:102D80000860444801F04CF82949086027A001F088
:102D900047F834490860404801F042F82B49086080
:102DA000FFF740FB04002D482649096801604022D6
:102DB00023492B4800F0AEFF2023214A5FF0FF316A
:102DC00022480068214D2D686D6BA84701200090B6
:102DD0004FF4FA6300223149314800F0D5FE0F4923
:102DE000086031BD41F2883000F0EDFDFFF7BEFF15
:102DF00001E0FFF7BBFA114800780028F9D002285B
:102E000006D002D3032806D0F5E7FFF75AFBF2E716
:102E1000FFF71EFFEFE7EEE7000C01404004002043
:102E2000A4A50008440400200F0B0020343835000E
:102E3000300400204C040020380400200C0B00203B
:102E4000D4050020D4070020DCA200083C040020A8
:102E50007CA10008FCA2000898000020D0040020FB
:102E6000D40400203404002004A5000864A5000850
:102E7000A0A000080A4900086CA500080D0B00205E
:102E800008A400081CA40008C0A40008B0A40008FE
:102E900044A500084CA5000854A50008B521000869
:102EA0005CA5000810B50400E4B2002C0BD0E4B21D
:102EB000012C08D0E4B2042C05D04FF45071DFF897
:102EC000180300F0D9FFDFF8140300210170DFF8C8
:102ED0000C0300210170E4B2012C02D0042C05D0B7
:102EE00009E0DFF8F8020121017004E0DFF8EC02EC
:102EF00005210170FFE710BD10B50400B4F5807F17
:102F00000BD0B4F5007F08D0B4F5407F05D040F277
:102F10007231DFF8C40200F0AFFFDFF8C0020068D2
:102F20002043DFF8B812086010BD10B50400E4B209
:102F3000002C08D0E4B2012C05D04FF46071DFF80A
:102F4000980200F099FFDFF89802E4B2046010BD27
:102F500030B40022002100230024DFF878522D68CD
:102F600015F00C052A00002A04D0042A06D0082AED
:102F700008D029E0DFF86C12016028E0DFF8641265
:102F8000016024E0DFF84C12096811F47011DFF8D9
:102F90004422126812F48033890C891C002B04D15E
:102FA000DFF84422514301600DE0DFF82822126867
:102FB000920304D5DFF830225143016003E0DFF8CB
:102FC00024225143016002E0DFF818120160DFF8AB
:102FD0000412096811F0F0021209DFF81012545CB3
:102FE0000168E1404160DFF8EC11096811F4E0622A
:102FF000120ADFF8F811545C4168E1408160DFF8A3
:10300000D411096811F46052D20ADFF8E011545C5F
:103010004168E140C160DFF8BC11096811F4404229
:10302000920BDFF8CC11545CC168B1FBF4F1016183
:1030300030BC704738B504000D00DFF8B801044219
:1030400001D1002C04D140F22B41634800F014FF61
:10305000EDB2002D07D0EDB2012D04D040F22C418D
:103060005D4800F009FFEDB2002D06D0DFF88801C1
:10307000006820436049086004E05F480068A0439E
:103080005D49086031BD38B504000D005B4804425D
:1030900001D1002C04D140F24A414F4800F0ECFE2F
:1030A000EDB2002D07D0EDB2012D04D040F24B411E
:1030B000494800F0E1FEEDB2002D05D0504800680F
:1030C00020434F49086004E04D480068A0434C4944
:1030D000086031BD38B504000D004A48044201D1F2
:1030E000002C04D140F269413B4800F0C5FEEDB22E
:1030F000002D07D0EDB2012D04D040F26A413648D0
:1031000000F0BAFEEDB2002D05D03F480068204324
:103110003D49086004E03C480068A0433A49086023
:1031200031BD10B50400E4B2002C07D0E4B2012C8C
:1031300004D04FF49B61284800F09EFE3348E4B26F
:10314000046010BD10B50400002100220020E4B28C
:10315000212C22D0E4B2312C1FD0E4B2392C1CD067
:10316000E4B2412C19D0E4B2612C16D0E4B27A2C2E
:1031700013D0E4B27B2C10D0E4B27C2C0DD0E4B29E
:103180007D2C0AD0E4B27E2C07D0E4B27F2C04D090
:1031900040F23451104800F06FFEE4B26109C9B248
:1031A000012902D10A48026806E0022902D10B482F
:1031B000026801E016480268E4B214F01F01012021
:1031C0008840024201D0012000E00020C0B210BDC2
:1031D0000010024004100240EC9E00082010024043
:1031E0003C04424200127A0000093D0080000020A9
:1031F00090000020A8FAFFFF141002400200C0FF58
:1032000018100240003601811C1002404004424266
:1032100024100240F8B504000D0000260022002111
:10322000002300200027DFF8A4C264451CD0DFF88B
:10323000A002844218D0DFF89C02844214D0DFF848
:103240009802844210D0DFF8940284420CD0DFF858
:103250009002844208D0DFF83004844204D0B221C6
:10326000DFF8280400F008FEE878002819D0E87894
:10327000042816D0E878282813D0E878482810D0F9
:10328000E87814280DD0E87810280AD0E8781C28AF
:1032900007D0E878182804D0B321DFF8F00300F055
:1032A000EBFD2888002804D1B421DFF8E00300F00A
:1032B000E3FDE87810F00F06E878C0060FD5A8788F
:1032C00001280AD0A878022807D0A878032804D0BB
:1032D000BB21DFF8B80300F0CFFDA87806432878BB
:1032E000000622D02068002106E0EA78482A02D1B0
:1032F00001228A402261491C082915D2012212FAB2
:1033000001F32A881A409A42F5D18B000F2212FA53
:1033100003F7B84316FA03F21043EA78282AE4D1F7
:1033200001228A406261E6E720602888B0F5807F4C
:1033300027D36068002121E0012211F1080312FA6D
:1033400003F32A881A409A4217D18B000F2212FAEF
:1033500003F7B84316FA03F21043EA78282A04D197
:10336000012211F108039A406261EA78482A04D1E7
:10337000012211F108039A402261491C0829DBD37C
:103380006060F1BD10B50400DFF8400184421DD03B
:10339000DFF83C01844219D0DFF83801844215D0AF
:1033A000DFF83401844211D0DFF8300184420DD0BF
:1033B000DFF82C01844209D0DFF8CC02844205D02A
:1033C0004FF49A71DFF8C40200F056FDA06880B295
:1033D00010BD38B504000D00DFF8F00084421BD0AA
:1033E000DFF8EC00844217D0DFF8E800844213D005
:1033F000DFF8E40084420FD0384884420CD03848CB
:10340000844209D0DFF88002844205D040F269117D
:10341000DFF8780200F030FDADB2002D05D14FF499
:10342000B571DFF8680200F027FDADB2256131BD4E
:1034300038B504000D002548844218D02448844241
:1034400015D02448844212D0234884420FD0234808
:1034500084420CD02248844209D0DFF82C028442F6
:1034600005D040F27911DFF8240200F005FDADB27D
:10347000002D05D14FF4BD71DFF8100200F0FCFC07
:10348000ADB2656131BD38B504000D000F4884420E
:1034900018D00F48844215D00E48844212D00E48EE
:1034A00084420FD00D4884420CD00D48844209D08C
:1034B000DFF8D401844205D04FF4D271DFF8CC019B
:1034C00000F0DAFCADB2E56031BD0000000801405B
:1034D000000C0140001001400014014000180140A0
:1034E000001C014038B504000D000020002200211E
:1034F0000023012C00F08580022C00F08280042C37
:1035000000F07F80082C7CD06148844279D06148EB
:10351000844276D06048844273D06048844270D040
:103520005F4884426DD05F4884426AD05E488442DE
:1035300067D05E48844264D05D48844261D0B4F56F
:10354000805F5ED0B4F5EA1F5BD0B4F5EB1F58D0B6
:10355000B4F5004F55D05748844252D05648844263
:103560004FD0564884424CD05548844249D05548A3
:10357000844246D0B4F1201F43D05348844240D007
:10358000524884423DD0524884423AD05148844205
:1035900037D05148844234D05048844231D0B4F5B9
:1035A000011F2ED04E4884422BD04E48844228D052
:1035B0004D48844225D04D48844222D04C48844214
:1035C0001FD04C4884421CD04B48844219D04B48F1
:1035D000844216D04A48844213D04A48844210D0CC
:1035E000494884420DD0494884420AD04848844220
:1035F00007D04848844204D040F22A21234800F0F2
:103600003BFCEDB2002D07D0EDB2012D04D040F20D
:103610002B211E4800F030FC002C02D53E480168EA
:1036200001E03E480168C4F30343A0B214F4401221
:10363000B2F5401F08D131F07061384A126832F09B
:103640007062364B1A600FE0E20205D503229A4001
:10365000914351F0706107E0620DD2B2120110FA8D
:1036600002F2914351F07061EDB2002D04D0620D71
:10367000D2B2120190400143002C02D526480160CD
:1036800001E02648016031BD002001402C9E000869
:10369000100014003000140040001600C000160096
:1036A00000011800000218000003180000081A00AA
:1036B000000C1A000100200002002000040020007D
:1036C0000800200010002000400020000001300011
:1036D0000002300000043000001120000020200013
:1036E00001000080020000800400008008000080CB
:1036F00010000080200000804000008080000080DA
:1037000000010080000200800004008000080080AA
:1037100000100080002000801C00014004000140D7
:103720004060006070470268516002680A60016092
:10373000486070474268116042684A6041600860B2
:103740007047016842684A60416802680A604060E8
:103750000060704738B5DFF87803046800F0DAFBE2
:103760000500200000F036FD042084F8340014F138
:103770006000FFF7E6FF14F14C0000F0ABFD200005
:1037800000F0E9FD012806D1A06F002803D1200038
:1037900000F0A0FD05E014F11401DFF83803FFF795
:1037A000C2FF280000F0BAFB00F09FFC31BD2DE9FC
:1037B000FC41040015001E00089FDDF8248014F170
:1037C0001400FFF7ADFF25626662A762A4F82C80A3
:1037D000A28D2321A06A00F0DBFDBF4BA08DA16A62
:1037E0004018021F616A206A00F062FEE0610A98D8
:1037F00084F8360084F835000B986064A0640020DB
:103800002063002084F834000020A0670020E067D7
:10381000002001900020009023000FF2952221004B
:1038200014F14C0000F087F90020BDE8F6812DE985
:10383000F04F85B005000E0017009846DDF838906F
:10384000DDF83CA0109CDDF844B0320000212800D7
:1038500000F025FDCDF80CB0E4B20294CDF804A040
:10386000CDF8009043463A0031002800FFF79FFF53
:1038700005B0BDE8F08F96480068704780B590F8B5
:10388000361080F83510012190F935209140816380
:10389000022180F8341000F0E7F8FFF7ECFF002871
:1038A00001D000F022FC002002BD2DE9FF470500F9
:1038B0000E00170098460C9CDDF83490290000207B
:1038C00000F015FD8246BAF1000F01D1002017E08B
:1038D000404600F0EDFE002804D1504600F02BFDDC
:1038E00000200DE0CDF80C90E4B20294CDF80480F5
:1038F00000903B00320029005046FFF758FF504629
:1039000004B0BDE8F08738B50400200000F062FC88
:1039100014F14C0000F027F9042084F8340000F082
:10392000F9FA050014F114016A48FFF7FCFE2800BB
:1039300000F0F4FA002032BD38B500F0EBFA0400D4
:103940006348056895F83400012817D16869A969AA
:10395000884213D015F11400FFF7F3FE15F114019E
:1039600095F835005D4A12EBC000FFF7E3FE20003A
:1039700000F0D4FA00F0B9FB002003E0200000F0D2
:10398000CDFA002032BD31B500F0C4FA0400504831
:103990000568280000F051F800AA002115F14C003C
:1039A00000F05AF915F14C0000F00AF9200000F07F
:1039B000B5FA00F09AFB286B10F1020F01D100203C
:1039C0002863002032BD80B5FFF7DDFF02BD70B572
:1039D00005001600C9B2002925D0022901D026D33E
:1039E00029E000F097FA040095F8340001280ED180
:1039F000280000F0EFFB307885F83500012095F9BC
:103A000035108840A863280000F0C9FB07E0307833
:103A100085F83500012095F935108840A86320000D
:103A200000F07CFA07E02800FFF728FF04E02800F8
:103A3000FFF769FF00E0002070BD38B5040094F87E
:103A40003400012802D05FF0FF300CE000F062FA91
:103A50000500022084F83400200000F0BBFB2800A1
:103A600000F05CFA002032BD38B5040094F8340050
:103A7000022802D05FF0FF3017E000F04BFA05009B
:103A800014F11400FFF75DFE14F16000FFF759FE1A
:103A900094F8550010F0FE0084F85500280000F05E
:103AA0003DFA200000F07BFB002032BD000000004A
:103AB00010B504007FF00100206314F11400FFF73B
:103AC00040FE200000F06BFB00F00FFB10BD00007B
:103AD000200400202804002055370008200300207F
:103AE0004060006070474268116042684A6041600F
:103AF00008607047016842684A60416802680A606D
:103B00004060006070470168814201D1012000E0FF
:103B10000020C0B2704710B5029C4472447A14F081
:103B2000FE044472C161026200218162436214306A
:103B3000FFF7D6FF10BD2DE9F04182B00500160059
:103B40001F00DDF82080099C0A000721280000F0F2
:103B5000A6FBE4B2009443463A0031002800FFF788
:103B6000DAFFBDE8F38138B5040000F0D3F90500B1
:103B700014F11400FFF7BEFF280000F0CFF9200079
:103B800000F0A8FB002032BD2DE9F04182B00D000D
:103B900016001F00089C0100072000F0A8FB8046CB
:103BA000B8F1000F01D1002008E0E4B200943B001E
:103BB000320029004046FFF7AEFF4046BDE8F681DF
:103BC000F8B50400607AC00702D55FF0FF302AE044
:103BD00000F04DFE616A0818A06200F09BF9050034
:103BE000454E376800E03F68B7420DD0B7F114008A
:103BF000806AA16A401A7FF000418842F3D214F132
:103C000014013800FFF76FFFB74204D114F114011B
:103C10003800FFF768FF607A50F0010060722800FA
:103C200000F07CF90020F2BD38B50400607AC007CE
:103C300002D45FF0FF300EE000F06CF9050014F1E3
:103C40001400FFF757FF280000F068F9607A10F0C1
:103C5000FE006072002032BDC9B2002908D00229DE
:103C600009D002D303290BD00EE0406A10600BE0AC
:103C70001168416208E0417A11F0FD01417203E0F0
:103C8000417A51F0020141720020704770B500F096
:103C9000EEFD060000F03EF9040006E0687A10F040
:103CA000FE0068722800FFF78BFF1348FFF72BFF19
:103CB00000281DD110480068B0F11405A86A301A18
:103CC0007FF00041884213D215F11400FFF712FF74
:103CD000286AE969884700F0CAFD0600687A10F092
:103CE00003000328DAD0687A10F0FE006872DCE77F
:103CF000200000F013F970BD9C0000207047704751
:103D000010B5044610460A460146204600F0CAFD9A
:103D1000204610BD10B5044600F0F8FD204610BD49
:103D200001B481B00198411E019100280AD0002001
:103D30000090009841F294118842F3D20098401C00
:103D40000090F6E702B0704701B481B00198411EBF
:103D50000191002808D00020009000980428F5D296
:103D60000098401C0090F8E702B0704780B5FFF75C
:103D7000EBFF01BD80B5C0B2FFF7D2FF01BD10B4AB
:103D800050F8041B81B102681218001D50F8043B62
:103D9000DC0744BFA9F10104E31852F8044B43F8CF
:103DA000044B091FF9D1EBE710BC704770B5040054
:103DB0000D001600002C02D15FF0FF300EE028004D
:103DC00000F02EF8002802D05FF0FF3006E02A0055
:103DD0000621200000F063FAE682002070BD70B575
:103DE000234C656804E0F08A50F01000F0822D68E2
:103DF000201D854212D0B5F10C06716A080000281A
:103E0000F5D0B07DC006F2D4300088470028EAD053
:103E100002003100174800F039FBE8E7002070BDD0
:103E2000F8B50400FFF727FD002801D000F0EEF9F7
:103E30000F4F7E6800E03668381D864210D0B6F11C
:103E40000C0508222100280000F0E3FA0028F2D136
:103E5000FFF711FD002801D000F0E3F9280006E08B
:103E6000FFF709FD002801D000F0DBF90020F2BDCA
:103E700060000020DCA0000804000D00144800F0E1
:103E800005FB2100134800F001FB2900124800F057
:103E9000FDFAFEE780B500F0C0FD00F0D3FA00F0B7
:103EA000E5FC00F0FBF9FFF729FF0C490C4800F096
:103EB000ABFB00F0CAF800F027FEFFF790FF00F020
:103EC00074FEFFF71CFF00F0E6FE00F0D9F801BD1C
:103ED000D8A10008E0A30008F4A3000800C0002057
:103EE000104B002080B500F015F8FFF7D3FF00203D
:103EF00002BD50F8041B61B150F8042BD30744BF36
:103F0000A9F101039A18002342F8043B091FFAD1D2
:103F1000EFE77047EFF3108072B6704780F31088B8
:103F20007047264A1368012B04D04FF00103136039
:103F3000234A1060234A11602348244901607047D6
:103F4000EFF3108272B61D48016891B14FF0000185
:103F500001601B48016829B1EFF3098121E9F00FE5
:103F600000680160174909680968B1E8F00F81F33A
:103F7000098882F310884EF0040E704711490860DA
:103F80000F494FF0000008600C494FF00100086035
:103F90000F481049D0F8002041EA020101600A48A8
:103FA0000A49016062B67047EFF3098000B500F07E
:103FB0009EFA5DF804EB4EF0040E70471C010020E1
:103FC000140100201801002004ED00E000000010A2
:103FD00020ED00E00000FF00406000607047426894
:103FE000116042684A604160086070470168426839
:103FF0004A60416802680A6040600060704701687A
:10400000814201D1012000E00020C0B2704780B59C
:10401000816AC269914205D2816A828D5118C26952
:10402000914208D201008B4800F030FAFFF772FF8E
:104030000028FDD108E0816A2031C269914203D392
:104040000100854800F022FA01BD10B58348002127
:104050000180002405E0824810EBC400FFF7BCFF9C
:10406000641C202CF7DB7F481F2101707E48002153
:1040700001607E48002101607D48FFF7ADFF10BD63
:1040800080B57A480078000605D078480078C0B23C
:104090007849405C1FE07548006810F47F4F07D0F6
:1040A00072480068C0F307207249405C083012E093
:1040B0006E48006810F47F0F07D06C480068C0F3AA
:1040C00007406C49405C103005E068480068000E0D
:1040D0006849405C1830624951F830001438624930
:1040E00008601C30FFF74AFF01BD70B5FFF712FFF3
:1040F00004005A48B0F9000000284CD15B48007811
:10410000000605D059480078C0B25A49405C1FE00B
:104110005648006810F47F4F07D054480068C0F339
:1041200007205449405C083012E05048006810F401
:104130007F0F07D04D480068C0F307404D49405CF1
:10414000103005E049480068000E4A49405C1830CC
:10415000434951F83010B1F11405434909688D42C3
:1041600019D040490870404806683F48056028005B
:10417000FFF74DFF40480078002806D115F11C01DB
:1041800016F11C00FFF7CDFE05E015F11C0116F13C
:104190001C00FFF7C6FE2000FFF7C0FE70BD38B55B
:1041A0000500FFF7B7FE0400012085F8340015F183
:1041B000140195F835002A4A12EBC000FFF70FFFF3
:1041C0002A480068A96B0843284908602000FFF7C7
:1041D000A5FE31BD38B50500FFF79CFE040015F1C2
:1041E0001400FFF703FF95F835001D4911EBC000DF
:1041F000FFF705FF002805D01C480068A96B88431D
:104200001A4908602000FFF789FE31BD80B5FFF72D
:1042100081FE12490988491C104A1180FFF77EFE71
:1042200001BD80B5FFF776FE0C490988491E0B4A8F
:1042300011800A49B1F90010012907DA0749002263
:104240000A80FFF76BFEFFF750FF01E0FFF766FE05
:1042500001BD000038A3000814A10008080B0020CD
:10426000200300200B0B0020200400202404002049
:1042700028040020A09A00080A0B00200268516060
:1042800002680A60016048607047016842684A60DD
:10429000416802680A60406000607047704770B50E
:1042A00004001000C9B22F4A12EB011651F0800130
:1042B000217208220100200000F093F8FFF72AFE87
:1042C000050014F10C01301DFFF7D8FF2800FFF79F
:1042D00025FE70BD38B50400FFF71CFE050014F183
:1042E0000C00FFF7D2FF2800FFF718FE31BDF8B52C
:1042F00004000D00E4B21B4810EB0417F86800F04E
:10430000D7F90600002E01D1002013E034720020FE
:10431000707208222900300000F063F8FFF7FAFD00
:10432000040016F10C01381DFFF7A8FF2000FFF76D
:10433000F5FD3000F2BD38B50400FFF7EBFD0500D8
:1043400014F10C00FFF7A1FF2800FFF7E7FD2000A4
:1043500000F04CFA31BD007A000601D5012000E0E2
:10436000002070470000002010B5040000F0CAFCD7
:10437000002803D0DFF8FC00046008E0FFF77BFAB8
:10438000002803D1DFF8EC00046000E0046310BDF6
:1043900010B40300CCB2042A1DD310F0030100298D
:1043A00019D1030054EA042151EA014108E01960DF
:1043B0001B1D19601B1D19601B1D19601B1D103A68
:1043C000102AF4D2042A03D319601B1D121FF9E727
:1043D00001E01C705B1C11004A1E0029F9D110BCC1
:1043E000704710B4002A12D003000C78491C1C70CE
:1043F0005B1CE4B2002C07D1521E002A03D000211E
:1044000019705B1CF8E702E0521E002AEDD110BCC7
:10441000704710B4002300E0521E002A0ED090F91D
:10442000003091F900401B1B491C1C0064B2002C99
:1044300004D10400601C2478002CEDD15BB218007C
:1044400010BC704780B5DFF8300000F01FF8DFF8CF
:104450002C0000F01BF8DFF8280000900023012258
:104460000121DFF8200000F011F8DFF81C0000F057
:104470000DF801BDA4020020E0A4000850A200082D
:10448000ECA40008BCA20008ACA100080EB403B064
:10449000704703681AB95A1E0260084670471978B7
:1044A00011B94FF0FF307047591C01601878704700
:1044B00070B4121DD208D200403A1400002503E067
:1044C000254E44F825606D1C102DF9D32162002182
:1044D00061620021A1620021E16200212163636326
:1044E000A0635FF08070E063100070BC704710B58F
:1044F00004001A480068002806D0200017490968FF
:104500008847002800D110BDE1691548FFF7BEFFBC
:10451000A1691448FFF7BAFF61691348FFF7B6FFB6
:1045200021691248FFF7B2FFE1681148FFF7AEFFBB
:10453000A1681048FFF7AAFF61680F48FFF7A6FFC0
:1045400021680E48FFF7A2FFFFF795F901000C481C
:10455000FFF79CFFFEE70000EFBEADDE200100206C
:1045600030A4000840A4000850A4000860A400087B
:1045700070A4000880A4000890A40008A0A400086B
:104580001CA300084168DFF8C0221268891888421D
:104590001BD04A88002A18D1DFF8B0221268914255
:1045A00013D0DFF8AC2212688A4202D1DFF8A022D1
:1045B00010604A6842604968DFF88C2212688918E6
:1045C000DFF884221268821A8A608168DFF8782214
:1045D00012688918814216D04A88002A13D1DFF860
:1045E00070221268824202D1DFF8642211604268B0
:1045F0004A604068DFF8502212688018DFF84822CD
:104600001268891A8160704710B5C21C9208920026
:104610008B089B00192B45D3B3F11804944241D366
:10462000981A1838DFF82C120860DFF81C020260B4
:10463000DFF8140200684FF4F5510180DFF814121E
:1046400009680C314160002181600021418040688F
:10465000DFF8F41109684018DFF8F0110860DFF89E
:10466000EC0100684FF4F5510180DFF8E0010068CB
:104670000121418075480068DFF8D81109680C31C4
:10468000416072480068734909680C3181600023F9
:1046900001227149714800F088FB6D486A49096838
:1046A000016004E00A0001006D48FFF7EFFE10BD55
:1046B00038B50400002C01D1002096E0E01C8408ED
:1046C000A40064480068A04201D200208DE00C2CB8
:1046D00000D20C245FF0FF31604800F076FB5C48AC
:1046E000006859490968401A03E0574909684018A9
:1046F000406858490968091B884272D252490968C2
:10470000451869880029F0D16968091A0C39A14255
:10471000EBD36968091A0C3914F11802914229D3B4
:1047200021180C31484A12688A18002353806B689C
:10473000536090606960012068805068454B1B6839
:104740000C33984204D050683F4A12688018816048
:104750004448006814F10C010818424908604248B6
:1047600000684049096888421AD23F483D490968B3
:10477000016015E0012068803A48006869680818FF
:10478000401B3149096808183649086036480068F6
:1047900034490968884203D23348324909680160C4
:1047A0004FF4F55028802A480068854213D107E06D
:1047B000274800684068244909684018244908606F
:1047C000234800684088002805D0214800681F4918
:1047D00009688842ECD1214800F032FB15F10C0049
:1047E00003E01E4800F02CFB002032BD10B500286D
:1047F00029D015490968884203D3144909688842B9
:1048000000D320E0B0F10C045FF0FF31134800F05A
:10481000DCFA00206080002020800D48006884427F
:1048200001D20B4804600F4800686168401A2018E4
:1048300005490968401A0B4908602000FFF7A2FEED
:10484000064800F0FDFA10BDA8020020AC020020CE
:10485000B0020020D40200203CA50008B4020020D1
:1048600064A00008D8020020DC02002070470C4839
:104870000068704780B50A480068401C0849086015
:10488000FEF7F9FF816C491E8164816C002903D118
:10489000416C8164FFF750F8FFF7F8F901BD0000A3
:1048A0001001002062F30F2262F31F42401810F043
:1048B000030308D0C91A1FD3DB0748BF00F8012D36
:1048C00028BF20F8022D130030B4144615461039C5
:1048D00028BF20E93C00FAD8490728BF20E90C008E
:1048E00048BF40F8042D890028BF20F8022D48BF9A
:1048F00000F8012D30BC7047C91818BF00F8012D11
:10490000CB0728BF00F8012D704755AA62B38B076B
:1049100008D0521E11F8013B00F8013B00F0248042
:104920008B07F6D1830740F0208000BF103A07D3F1
:1049300030B4B1E83810103AA0E83810F9D230BCE1
:10494000530724BFB1E80810A0E8081044BF51F88D
:10495000043B40F8043BD20724BF31F8022B20F877
:10496000022B44BF0B7803707047083A07D3B1E8B5
:104970000810083A40F8043B40F804CBF7D253073C
:10498000E4E7000040B2002808D540B210F00F0064
:104990002A4A8018090100F8041C03E040B2284AA2
:1049A00009018154704780B5B0F1807F01D30120A7
:1049B00010E00002000A401E224908600F215FF04B
:1049C000FF30FFF7DFFF2048002101601F4807216B
:1049D0000160002002BD80B54FF400515FF000601F
:1049E00000F06FFB01BD80B500F076F9FFF742FFE4
:1049F00000F07DF901BD80B500F08EFB0020009035
:104A000002E00098401C0090009811498842F8D3B9
:104A100001211048FEF766FD01BD80B5FFF7EBFFF1
:104A2000FFF7D9FF0C4800684FF47A71B0FBF1F042
:104A3000FFF7B9FF00F02EFD01BD000018ED00E00A
:104A400000E400E014E000E018E000E010E000E026
:104A5000E86E030000023000940000200020704740
:104A60000020704710B51400C9B2102902D01129D6
:104A700004D017E000F0E5FD206013E001215FF0B5
:104A8000C050FEF727FB012000F024FE00F005FED9
:104A9000206800F0E1FD00F000FE4AF2A55104207C
:104AA00000F034FE002010BD10B55FF400140121A9
:104AB0005FF0C050FEF70EFB012000F00BFE00F08F
:104AC0001DFE0120FEF7EEF94120FEF73BFB00281A
:104AD00002D1641E002CF7D1002C02D15FF0FF3010
:104AE00011E04FF48070FEF707FA0120FEF71DFA7F
:104AF00000F0D8FD00F0D1FD47F6FF7000F0B8FDE2
:104B000000F0CBFD002010BD80B51B4805210175CC
:104B1000042000F08DFE4AF2A55188420DD01748BE
:104B2000FFF7B4FC1648FFF7B1FCFFF7BDFF002804
:104B300005D01448FFF7AAFC1BE000F0B3FD0E48B7
:104B4000002141620C48104981620B480021C1627A
:104B500009480E49016308480021416306480C4991
:104B6000816305480021C163032202A10248FFF7C7
:104B70001DF901BD72746300E002002070A30008FB
:104B80004CA1000888A300085D4A0008614A00089B
:104B9000654A000880B501F088F901F02DFC00227B
:104BA0001349144800F06AF901BD00B583B0142020
:104BB0000190082000904FF4006300220E490F4836
:104BC000FEF773FE002801D0FEF758FE1420019076
:104BD000012000904FF40053002209490948FEF7D4
:104BE00064FE002801D0FEF749FE00200EBD000043
:104BF0001CA50008EC000020954B000824A5000827
:104C0000E52D00082CA50008016842684A6041684B
:104C100002680A604060006070470168814201D10B
:104C2000012000E00020C0B2704738B52548FFF7EA
:104C3000F4FF002827D1FFF76DF904002148FFF7A2
:104C4000ECFF002820D11F480068B0F1140515F1D1
:104C50001400FFF7D9FFA86F002802D02800A96F21
:104C600088472800FFF777FB012803D12000FFF7D2
:104C700055F908E02000FFF751F9A86AFFF7B6FDE3
:104C80002800FFF758FB31BD2000FFF747F9FAE78E
:104C9000FFF7CBFFFCE700B585B0202003901F2075
:104CA00002904FF480700190074800900023074A5B
:104CB00007490848FEF7BBFD0648FEF7DFFD05B0D3
:104CC00000BD000028040020A4010020914C000831
:104CD00034A500082401002080B5FFF71BF90B491B
:104CE0000978491C094A1170FFF718F901BD80B510
:104CF000FFF710F905490978491E044A1170FFF7BA
:104D00000DF901BD01480078704700000A0B002032
:104D10004060006070474268116042684A604160CC
:104D2000086070470168814201D1012000E0002045
:104D3000C0B2704780B51430FFF7EAFF002002BD13
:104D400070B504000D0016002800FEF776FEF6B2DE
:104D5000002E02D0012E06D01EE015F11401200015
:104D6000FFF7D9FF18E0266800E03668A6420CD0AD
:104D7000B6F1140095F8351090F835209142F4D230
:104D800015F114011430FFF7C6FFA64204D115F146
:104D900014012000FFF7BFFF002070BD80B5006840
:104DA0001438FEF761FE002002BD70B50400150046
:104DB0001E000A0001212000FFF771FA2000FFF712
:104DC000B9FFA5836672002070BD73B50500FFF7BB
:104DD000A1F80400A88B012807D3A88B401EA88344
:104DE0002000FFF79BF8002076BD0198002805D130
:104DF0002000FFF793F87FF00100F5E7FEF73BFD99
:104E00000600002030636A7A310015F11400FFF7C4
:104E100097FF0198012809DB01AA002116F14C0037
:104E2000FEF71AFF16F14C00FEF7CAFE2000FFF74E
:104E300075F8FFF75AF9306B0028D4D0306BD3E700
:104E400070B504000026FFF765F8050014F11400A2
:104E5000FFF768FF002805D114F11400FFF79EFF4B
:104E6000012602E0A08B401CA0832800FFF756F823
:104E7000012E01D1FFF739F9002070BD38B50400CB
:104E800015000A0002212000FFF709FA2000FFF7B1
:104E900051FF0120A08300202062FF20A077002086
:104EA000E0776572002032BD38B50C0001000220A9
:104EB000FFF71DFA0500002D01D128000CE02800A5
:104EC000FFF738FF0120A88300202862FF20A87781
:104ED0000020E8776C72280032BD73B50500FFF73B
:104EE00019F80400FEF7C7FC060000203063286AAA
:104EF000B04203D1E87F401CE87746E0A88B012848
:104F00000AD3A88B401EA8832E6296F83500A87796
:104F1000E87F401CE87738E00198002808D17FF04E
:104F2000010030632000FEF7F9FF7FF0010030E060
:104F300096F83500296A91F83510884205D216F1A5
:104F400035020221286AFEF742FD6A7A310015F126
:104F50001400FFF7F5FE0198012809DB01AA0021E2
:104F600016F14C00FEF778FE16F14C00FEF728FE15
:104F70002000FEF7D3FFFFF7B8F8306B002801D010
:104F8000306B06E0FEF7C6FF04002000FEF7C6FF08
:104F9000002076BDF8B505000026FEF76CFC070082
:104FA000FEF7B8FF0400286A874208D05FF0FF30A0
:104FB00038632000FEF7B2FF5FF0FF3036E0E87F95
:104FC000401EE877E87F002828D1A87F296A91F859
:104FD0003510884205D015F11E020221286AFEF71D
:104FE000F6FC15F11400FFF79DFE00280FD168694B
:104FF000B0F114072F6297F83500A877E87F401CBE
:10500000E87715F11400FFF7C9FE012606E0A88B2A
:10501000401CA88300202862FF20A8772000FEF70C
:105020007DFF012E01D1FFF760F80020F2BD0000E6
:1050300038B50400002000210F25E278002A06D0B0
:10504000E078012803D075212B48FEF715FF607822
:10505000102803D376212848FEF70EFFA0781028E9
:1050600003D377212448FEF707FFE07800281DD0FE
:105070002248006810F4E060D0F5E060000AD0F14A
:105080000401C54060788840A178294008430001A8
:1050900021781B4A8854207840111A49012223782C
:1050A00013F01F039A4041F8202009E020784011B6
:1050B00015490122237813F01F039A4041F820205C
:1050C00031BD38B504000D00B4F1005F06D0B4F175
:1050D000006F03D09F210848FEF7CEFE0B488542A3
:1050E00003D3A0210448FEF7C7FE09482840204307
:1050F0000849086031BD00000CA000080CED00E07C
:1051000000E400E000E100E080E100E0FFFF0F00CC
:1051100080FFFF1F08ED00E080B54F48006850F0A9
:1051200001004D4908604D4800684D4908404B4911
:105130000860494800684B490840474908604648AC
:10514000006830F48020444908604448006830F426
:10515000FE004249086044485FF41F01016000F00E
:1051600005F842485FF00061016001BD80B500F0C4
:1051700001F801BD82B00020019000200090364867
:10518000006850F48030344908603348006810F4F7
:10519000003000900198401C01900098002803D135
:1051A0000198B0F5A06FF0D12B480068800302D5BC
:1051B0000120009001E0002000900098012847D1D4
:1051C0002B48006850F01000294908602848006802
:1051D00080088000264908602548006850F00200D9
:1051E000234908601D481D49096801601B481B4987
:1051F000096801601948006850F480601749086028
:105200001648006830F47C101449086013480068A0
:1052100050F4E810114908600F48006850F08070A1
:105220000D4908600C4800688001FBD50B480068F8
:1052300080088000094908600848006850F00200B2
:10524000064908600548006810F00C000828F9D1EC
:1052500002B070470000000000100240041002403D
:105260000000FFF8FFFFF6FE0810024008ED00E026
:105270000020024080B501210120FDF704FF01213B
:1052800044F20400FDF7FFFE01210820FDF7FBFEBC
:1052900001215FF48020FDF71DFF01210120FDF7B2
:1052A000C9FE01211020FDF7EEFE01215FF4002070
:1052B000FDF710FF01BD80B54FF48060ADF8000030
:1052C00004208DF8030000A9C548FDF7A3FF4FF4A3
:1052D0000070ADF8000003208DF8020018208DF852
:1052E000030000A9BE48FDF795FF4FF40060ADF83C
:1052F000000004208DF8030000A9BA48FDF78AFFDA
:105300004FF48060ADF8000018208DF803000320F2
:105310008DF8020000A9B348FDF77CFF4FF4006050
:10532000ADF8000004208DF8030000A9AE48FDF799
:1053300071FF4FF48060ADF8000018208DF8030075
:1053400003208DF8020000A9A748FDF763FF4FF482
:105350000070ADF8000010208DF8030003208DF8D8
:10536000020000A99F48FDF755FF4FF400719D48CA
:10537000FEF75EF801BD80B525208DF80000012004
:105380008DF8010001208DF8020001208DF8030046
:1053900000A8FFF74DFE27208DF8000001208DF8B2
:1053A000010001208DF8020001208DF8030000A803
:1053B000FFF73EFE0C208DF8000001208DF8010063
:1053C00001208DF8020001208DF8030000A8FFF7EE
:1053D0002FFE34208DF8000001208DF801000120FF
:1053E0008DF8020001208DF8030000A8FFF720FED1
:1053F00001BD7FB504000D0016000021200001F062
:1054000080FA00A801F017FA0095ADF80860B6B26E
:10541000B6F5806F03D0B6B2B6F5C06F04D14FF4C5
:105420008050ADF8040002E00020ADF8040000A9AF
:10543000200001F017F90121200001F062FA7FBD80
:1054400000B58BB0002004908020059000200690CD
:1054500000200790002008904FF440500990002051
:105460000A90624801F044FC6148009010200290CC
:10547000002001900120039000A95C4801F018FD74
:1054800001220A21594801F032FE202001F08CFE51
:105490000BB000BD00B587B0FFF7ECFEFFF70BFFC8
:1054A000FFF769FFFFF7CCFF4FF461400290002047
:1054B000ADF80C000020ADF80E000020ADF8100093
:1054C0000020ADF814000C20ADF812000020ADF85B
:1054D00000000020ADF802004FF40070ADF80400A9
:1054E0000020ADF8060002A9424801F0BBF800A96F
:1054F000404801F0AEF9404B40F243123F4940486A
:1055000002F0B7F8012240F225513A4801F030FA92
:105510005FF4E13002900020ADF80C000020ADF8FF
:105520000E000020ADF810000020ADF814000C2093
:10553000ADF812000020ADF800000020ADF8020028
:105540004FF40070ADF804000020ADF8060002A989
:105550002C4801F087F800A92A4801F07AF92A4876
:1055600022490160294B40F603122949294802F0DB
:1055700080F801228021234801F087FA012240F2BD
:105580002551204801F0F4F95FF4E1300290002049
:10559000ADF80C000020ADF80E000020ADF81000B2
:1055A0000020ADF814000C20ADF8120002A91A4832
:1055B00001F058F8194B40F2431208A1184802F0C4
:1055C00058F8012240F22551134801F0D1F9012188
:1055D000114801F096F907B000BD000034383500DD
:1055E00000080140000C0140001001401C00024076
:1055F0000448004000380140A400002094A50008A1
:105600002009002000480040A8090020BC0000201C
:105610009CA500083C0A0020004C0040D40000205B
:10562000C40A00202648008850F010002449088051
:105630007047234800884FF6EF71084020490880E2
:10564000704700201F49098808001F49098889B24E
:1056500080B250EA0140704710B50400FFF7E2FF46
:10566000200C1949088017480480FFF7E2FF10BD9D
:1056700010B50400B4F5801F03D3A3210F48FEF733
:10568000FBFBFFF7CFFF200C10F00F000F49088045
:105690000F480480FFF7CDFF10BD09480088800641
:1056A000FBD57047064800884FF6F771084004495B
:1056B0000880034800880007FBD570474C9F00080E
:1056C000042800401C2800401828004008280040FA
:1056D0000C28004010B50400E4B2002C06D0E4B25F
:1056E000012C03D07F210348FEF7C6FB0248E4B239
:1056F000046010BD8C9E000820000E4280B5012081
:10570000FDF70FFD0020FDF70CFD01BD38B50500CC
:105710000C0000200090ADB2042D00F07F80ADB2EF
:10572000082D7BD0ADB20C2D78D0ADB2102D75D038
:10573000ADB2142D72D0ADB2182D6FD0ADB21C2DFC
:105740006CD0ADB2202D69D0ADB2242D66D0ADB2F3
:10575000282D63D0ADB2402D60D0ADB2442D5DD0C8
:10576000ADB2482D5AD0ADB24C2D57D0ADB2502D60
:1057700054D0ADB2542D51D0ADB2582D4ED0ADB2A3
:105780005C2D4BD0ADB2602D48D0ADB2642D45D06C
:10579000ADB2682D42D0ADB26C2D3FD0ADB2702D00
:1057A0003CD0ADB2742D39D0ADB2782D36D0ADB27B
:1057B0007C2D33D0ADB2802D30D0ADB2842D2DD024
:1057C000ADB2882D2AD0ADB28C2D27D0ADB2902DA0
:1057D00024D0ADB2942D21D0ADB2982D1ED0ADB253
:1057E0009C2D1BD0ADB2A02D18D0ADB2A42D15D0DC
:1057F000ADB2A82D12D0ADB2AC2D0FD0ADB2B02D40
:105800000CD0ADB2B42D09D0ADB2B82D06D0ADB22A
:10581000BC2D03D0E3214F48FEF72EFB4E480090ED
:105820000098ADB2281800900098A4B2046031BD71
:1058300010B582B0040000200090A4B2042C00F047
:105840007F80A4B2082C7BD0A4B20C2C78D0A4B258
:10585000102C75D0A4B2142C72D0A4B2182C6FD016
:10586000A4B21C2C6CD0A4B2202C69D0A4B2242CDD
:1058700066D0A4B2282C63D0A4B2402C60D0A4B2CD
:10588000442C5DD0A4B2482C5AD0A4B24C2C57D092
:10589000A4B2502C54D0A4B2542C51D0A4B2582C41
:1058A0004ED0A4B25C2C4BD0A4B2602C48D0A4B291
:1058B000642C45D0A4B2682C42D0A4B26C2C3FD04A
:1058C000A4B2702C3CD0A4B2742C39D0A4B2782CE1
:1058D00036D0A4B27C2C33D0A4B2802C30D0A4B269
:1058E000842C2DD0A4B2882C2AD0A4B28C2C27D002
:1058F000A4B2902C24D0A4B2942C21D0A4B2982C81
:105900001ED0A4B29C2C1BD0A4B2A02C18D0A4B240
:10591000A42C15D0A4B2A82C12D0A4B2AC2C0FD0B9
:10592000A4B2B02C0CD0A4B2B42C09D0A4B2B82C20
:1059300006D0A4B2BC2C03D0F6210648FEF79CFA90
:10594000054800900098A4B22018009000980088A4
:1059500016BD00006C9D0008006C004000B587B0CB
:1059600001210420FDF78FFB01214FF48050FDF74A
:105970008AFB8020ADF8000003208DF8020018207B
:105980008DF8030000A9DFF86805FDF743FC20202F
:10599000ADF8000003208DF8020018208DF80300F8
:1059A00000A9DFF84C05FDF735FC4020ADF80000FC
:1059B00018208DF8030000A9DFF83405FDF72AFC54
:1059C00001A801F0C2FF0020ADF810000020ADF8E2
:1059D0000C000020ADF80A000020ADF804004FF4E0
:1059E0008270ADF806000020ADF808004FF400709A
:1059F000ADF80E000020ADF812000720ADF814003D
:105A000001A9DFF8F00401F0F1FE0121DFF8E40460
:105A100001F0AEFF07B000BD10B504000221DFF8B1
:105A2000D40402F001F80028F8D0E4B2210089B2D1
:105A3000DFF8C00401F0CBFF0121DFF8B80401F06A
:105A4000F3FF0028F8D0DFF8AC0401F0D7FFC0B2B4
:105A500010BD80B5C0B2FFF7DFFF01BD80B5FF20EC
:105A6000FFF7DAFF02BD80B5FFF7F8FF02BD80B592
:105A7000C0B2FFF7EEFF01BD80B5FFF76FFF012158
:105A80000420FDF700FB1020ADF8000010208DF879
:105A9000030003208DF8020000A9DFF85404FDF78D
:105AA000B9FB1021DFF84804FDF793FC0121102019
:105AB000FDF7E9FA4FF40050ADF8000010208DF822
:105AC000030003208DF8020000A9DFF82C04FDF785
:105AD000A1FB4FF40051DFF82004FDF77AFC002011
:105AE00000F09FF901BD10B5040000F028F9102165
:105AF000DFF8FC03FDF79CFC2020FFF7B8FF200C2B
:105B0000C0B2FFF7B4FF200AC0B2FFF7B0FF200019
:105B1000C0B2FFF7ACFF1021DFF8D403FDF759FC4A
:105B200000F01FF910BD70B504000D00160000F064
:105B300006F91021DFF8B803FDF77AFC0220FFF721
:105B400096FF280CC0B2FFF792FF280AC0B2FFF7F9
:105B50008EFF2800C0B2FFF78AFF03E02078FFF72E
:105B600086FF641C3000461E80B20028F6D110214A
:105B7000DFF87C03FDF72DFC00F0F3F870BD2DE994
:105B8000F84F06000D009046002700245FF0000942
:105B90005FF0000A5FF0000B4FF48070B5FBF0F18E
:105BA00001FB10518946D9F1000082461FFA88F89E
:105BB0004FF4807098FBF0F007001FFA88F84FF45C
:105BC000807098FBF0F101FB10810C00280502D1D8
:105BD0002800FFF788FF5FFA89F9B9F1000F20D19B
:105BE000FFB2002F10D1424692B229003000FFF7D9
:105BF0009AFF7CE04FF4807229003000FFF793FF9A
:105C000015F5807516F580763800471EC0B200285D
:105C1000F0D1E4B2220092B229003000FFF783FFF6
:105C200065E0FFB2002F26D15FFA8AFAE4B2A245FE
:105C30001AD2B4EB0A0B5FFA8AFA524692B22900E2
:105C40003000FFF770FF5FFA8AFA1AEB05055FFA7A
:105C50008AFA1AEB06065FFA8BFB5A4692B22900C3
:105C60003000FFF760FF42E0424692B22900300068
:105C7000FFF759FF3BE05FFA8AFAB8EB0A081FFA10
:105C800088F84FF4807098FBF0F71FFA88F84FF40B
:105C9000807098FBF0F404FB10845FFA8AFA524695
:105CA00092B229003000FFF73EFF5FFA8AFA1AEB42
:105CB00005055FFA8AFA1AEB060609E04FF48072CE
:105CC00029003000FFF72FFF15F5807516F5807657
:105CD0003800471EC0B20028F0D1E4B2002C06D034
:105CE000E4B2220092B229003000FFF71CFFBDE8A9
:105CF000F18F70B504000D00160010217C48FDF7EF
:105D000097FB0320FFF7B3FE280CC0B2FFF7AFFEEE
:105D1000280AC0B2FFF7ABFE2800C0B2FFF7A7FE0B
:105D200003E0FFF7A0FE2070641C3000461E80B226
:105D30000028F6D110216E48FDF74BFB70BD80B5F1
:105D400010216B48FDF774FB0620FFF790FE102131
:105D50006748FDF73EFB4FF400516748FDF739FBFC
:105D600001BD38B50024002510216148FDF760FB16
:105D70000520FFF77CFEFFF776FE0500641C4EF65B
:105D80006020A4B2844202D2EDB2E807F3D410211D
:105D90005748FDF71EFB00F032F831BD10B5040086
:105DA000FFF7CDFF10215248FDF742FB0120FFF71E
:105DB0005EFE2000C0B2FFF75AFEA4B2200AC0B2B5
:105DC000FFF755FE10214A48FDF703FBFFF7C9FF17
:105DD00010BD10B50400FFF7B2FF10214448FDF7D5
:105DE00027FB2000C0B2FFF742FEFFF73CFE040095
:105DF00010213F48FDF7EDFA2000C0B210BD80B57C
:105E000010213B48FDF714FB0420FFF730FE102162
:105E10003748FDF7DEFA4FF400513748FDF708FB2D
:105E200001BD80B5C0B200280BD00520FFF7D1FF1F
:105E3000C0B210F09C009C280ED09C20FFF7AEFF53
:105E40000AE00520FFF7C5FFC0B210F09C009C28B7
:105E500002D18020FFF7A2FF01BD00207047002083
:105E600070470020704710B510001C00220092B24D
:105E7000FFF73FFF200010BD10B510001C002200EE
:105E800092B2FFF77CFE200010BD80B5C9B2002998
:105E900002D0012904D006E00020FFF7C2FF02E093
:105EA0000120FFF7BEFF002002BD80B5FFF7E4FD33
:105EB0001248012101751148114941620F481149E9
:105EC00081620E481049C1620C48104901630B48B9
:105ED0000F49416309480F49816308480021C163A4
:105EE0000F220D490548FDF761FF01BD00000000CC
:105EF00000080140003001400010014098080020D7
:105F00005B5E00085F5E0008635E0008675E000875
:105F1000795E00088B5E00088CA5000880B5012121
:105F20001820FDF7B0F84FF40140ADF80000102044
:105F30008DF8030003208DF8020000A9DFF8D406D5
:105F4000FDF768F940F2C230ADF8000010208DF87E
:105F5000030003208DF8020000A9DFF8BC06FDF75E
:105F600059F901BD10B4002110F00F0211000022F8
:105F700005E00123D2F10704A3409943521CD2B299
:105F8000042A0CD20123141DA3400400E4B21C42D5
:105F9000EFD00123D2F10704A3401943EEE7080034
:105FA000C0B210BC704770B5040000264FF4807179
:105FB000DFF86006FDF73CFA4FF40041DFF85406C5
:105FC000FDF736FADFF85006FDF7DCF905004FF66D
:105FD0003F4005402000C0B2FFF7C4FF10F0F000C2
:105FE000800006003543290089B2DFF82C06FDF752
:105FF0004AFA00F041F870BD80B5FFF78FFF14201A
:10600000FDF7B8FE3020FFF7CEFF0A20FDF7B2FE05
:106010003020FFF7C8FFC820FDF7A8FE3020FFF7AB
:10602000C2FF6420FDF7A2FE2020FFF7BCFF642022
:10603000FDF79CFE282000F034F86420FDF796FE62
:10604000062000F02EF86420FDF790FE0E2000F0F0
:1060500028F86420FDF78AFE012000F022F80A20CB
:10606000FDF788FE4FF40041DFF8A805FDF7E0F9E1
:106070000A20FDF77FFE01BD80B50120FDF77AFE05
:106080000221DFF89405FDF7A4F90120FDF772FE67
:106090000221DFF88405FDF7CBF90120FDF76AFE48
:1060A00001BD70B5050000264FF48071DFF864056E
:1060B000FDF7BEF90220FDF75DFEDFF85C05FDF798
:1060C00061F904004FF63F4004402800C0B2FFF7DA
:1060D00049FF10F0F000800006003443210089B22F
:1060E000DFF83405FDF7CFF9FFF7C6FF2D01DFF824
:1060F0002805FDF747F904004FF63F40044000260D
:106100002800C0B2FFF72EFF10F0F000800006005C
:106110003443210089B2DFF80005FDF7B4F9FFF739
:10612000ABFF70BD70B5050000260220FDF722FE12
:106130004FF48071DFF8DC04FDF74BF90220FDF726
:1061400019FEDFF8D404FDF71DF904004FF63F40B7
:1061500004402800C0B2FFF705FF10F0F0008000F7
:1061600006003443210089B2DFF8AC04FDF78BF957
:10617000FFF782FF2D01DFF8A004FDF703F904000B
:106180004FF63F40044000262800C0B2FFF7EAFE69
:1061900010F0F000800006003443210089B2DFF8DF
:1061A0007804FDF770F9FFF767FF70BD80B5C9B2DD
:1061B000002901D1803800E04038C0B2FFF771FFFC
:1061C00001BD10B51400C9B2C0B2FFF7EFFF200047
:1061D000C0B2FFF7A7FF10BD70B505000C00160098
:1061E00014F1010F1CD10120FFF75BFF0220FDF726
:1061F000EAFB002414E02878202801D2202028700F
:106200002A78102094FBF0F1C9B2102394FBF3F02C
:1062100000FB1340C0B2FFF7D4FF641C6D1C761E58
:106220002878002845D0002E43D0287808282FD081
:106230000A28E0D1112C15DA0FE02022E4B2102058
:1062400094FBF0F1C9B2E4B2102394FBF3F000FB2D
:106250001340C0B2FFF7B5FF641CE4B2102CECD3BE
:10626000102414E00FE02022E4B2102094FBF0F19F
:10627000C9B2E4B2102394FBF3F000FB1340C0B2A8
:10628000FFF79FFF641CE4B2202CECD30024C5E789
:10629000012C00DB641E2022102094FBF0F1C9B217
:1062A000102394FBF3F000FB1340C0B2FFF789FF0B
:1062B000B4E7200070BD00B583B014200190072022
:1062C00000904FF4806300220FF2A511DFF84C0319
:1062D000FDF7EBFADFF848130860DFF844030068C5
:1062E000002804D0DFF838030068FDF7C7FA07BDBF
:1062F00080B5DFF82C030068FDF705FB01BD00B594
:1063000083B014200190072000904FF48063002296
:106310000FF2E511DFF80403FDF7C7FADFF8041305
:106320000860C0480068002803D0BE480068FDF738
:10633000A5FA07BD80B5BB480068FDF7E4FA01BDCA
:1063400080B5FFF759FE002002BD002070470020F5
:1063500070470020704738B515001C002200280047
:10636000FFF73AFF002000E0401C40280AD22978BD
:10637000002909D0AC4941182A780A716D1C641EA5
:10638000002CF1D1002401E0FCE7641C032C06D2B0
:10639000A549411820220A71401C4028F5D3A24982
:1063A000C870002032BD10B51400C9B2002905D054
:1063B00002290FD009D3032915D01BE09A480321E5
:1063C00001700120FFF76DFE14E0FFF774FFFFF787
:1063D00096FF0FE0FFF7AEFF934821784170924897
:1063E0000221017006E0FFF7A5FFFFF781FF8E484D
:1063F00003210170002010BD1CB5FFF7FDFD012138
:1064000083A0FEF751FD8949086089480021017584
:10641000874888494162864887498162844887491C
:10642000C162834886490163814886494163804847
:10643000854981637E487C49C163022283497C4847
:10644000FDF7B4FCFF23824A00217948784C646B45
:10645000A04714200190072000904FF48063002291
:106460000FF295017B48FDF720FA6E49086013BDD5
:10647000002438E0C9B26C4A8A181279C0B2764B4F
:10648000C254491C684AD278C9B2914200D3002153
:10649000401CC0B21028EDD36F48002101745FF09A
:1064A000FF3162480068FEF718FD002808D110226D
:1064B00000216948FFF790FE5C480068FEF76AFD1E
:1064C00059480078022803D15748407800F06EF808
:1064D0004FF4FA70FDF777FA641C5348C078E4B2C1
:1064E000844200D30024112200215B48FDF708FC00
:1064F00021000020CDE7000086B000208DF81000BC
:106500001325002422E0EDB2C0B24119534A895C40
:10651000C0B200AA8154401CC0B21028F3D36D1E33
:106520005FF0FF3141480068FEF7D7FC002808D132
:106530001022102100A8FFF74FFE3C480068FEF72C
:1065400029FD4FF4C870FDF73EFA641CE4B2102C2C
:1065500001D20020E0E70025002422E0EDB2C0B225
:1065600041193F4A895CC0B200AA8154401CC0B2A4
:106570001028F3D36D1C5FF0FF312C480068FEF744
:10658000ACFC002808D11022102100A8FFF724FE3F
:1065900026480068FEF7FEFC4FF4C870FDF713FABA
:1065A000641CE4B2102CA8D20020E0E700B585B04E
:1065B0000021C0B200016322B0FBF2F00100002014
:1065C00004E0C0B200AA20238354401CC0B21028AB
:1065D00008D2C0B2C9B28842F3D2C0B200AA232303
:1065E0008354F2E700208DF810005FF0FF310F4870
:1065F0000068FEF772FC002808D11022102100A8C4
:10660000FFF7EAFD09480068FEF7C4FC05B000BDCD
:106610004C636400000C01400010014074A50008A8
:106620007C08002080080020340800207808002022
:10663000F4070020416300084B6300084F63000823
:106640005363000857630008A76300087CA500088F
:1066500054A3000884A500088408002000A20008B4
:1066600074A20008F0B585B004000D0000200021E0
:10667000002200230026DFF89874BC4214D0DFF813
:106680009404844210D0DFF8900484420CD0DFF8E8
:106690008C04844208D0DFF88C04844204D0B821F2
:1066A000DFF87C04FDF7E8FB2868002804D02868A0
:1066B000DFF87414884204D3B921DFF86404FDF7CD
:1066C000DBFBA888002808D0A888B0F5805F04D03C
:1066D000BA21DFF84C04FDF7CFFBE888002810D082
:1066E000E888B0F5805F0CD0E888B0F5005F08D08E
:1066F000E888B0F5405F04D0BB21DFF82404FDF743
:10670000BBFB288900280CD02889B0F5806F08D001
:106710002889B0F5C06F04D0BC21DFF80404FDF770
:10672000ABFB68894FF6F371084202D168890028F3
:1067300004D1BD21DFF8E803FDF79EFBA8890028FE
:1067400010D0A889B0F5807F0CD0A889B0F5007F63
:1067500008D0A889B0F5407F04D0BE21DFF8C0037F
:10676000FDF78AFBA889002810D0DFF8A403844233
:106770000CD0DFF8A003844208D0DFF89C038442E9
:1067800004D0C221DFF89803FDF776FB2600208AAB
:106790004CF6FF710840E98808432082A0894EF634
:1067A000F3110840A9882A8911436A8911430843D3
:1067B000A081A08A4FF6FF410840A9890843A08222
:1067C00000A8FCF7C5FBDFF84803864201D1039916
:1067D00000E00299A089000407D5192000FB01F010
:1067E00029684900B0FBF1F206E0192000FB01F036
:1067F00029688900B0FBF1F26420B2FBF0F00001DF
:106800000109642303FB1123A189090408D5D900D8
:1068100032316422B1FBF2F111F00701084307E0C5
:10682000190132316422B1FBF2F111F00F0108437A
:10683000208105B0F0BD4FF4165101600021818028
:106840000021C180002101810C2141810021818131
:10685000704738B504000D000020DFF8B4128C42F8
:106860000DD0DFF8B002844209D0DFF8AC028442D8
:1068700005D04FF49971DFF8A802FDF7FDFA2888DA
:10688000002809D02888B0F5006F05D040F23311F8
:10689000DFF88C02FDF7F0FA6888002809D06888D4
:1068A000B0F5806F05D04FF49A71DFF87402FDF7F0
:1068B000E3FAA888002809D0A888B0F5007F05D0A1
:1068C00040F23511DFF85802FDF7D6FAE8880028C3
:1068D00009D0E888B0F5807F05D04FF49B71DFF8D0
:1068E0004002FDF7C9FA208A4FF2FF0108402988CB
:1068F0006A881143AA881143EA8811430843208219
:1069000031BD38B504000D00DFF80402844215D013
:10691000DFF80002844211D0DFF8FC0184420DD080
:10692000DFF8F801844209D0DFF8F801844205D08D
:106930004FF4B171DFF8E801FDF79EFAEDB2002DDA
:1069400008D0EDB2012D05D040F26311DFF8D0017F
:10695000FDF792FAEDB2002D04D0A08950F400505A
:10696000A08104E0A0894DF6FF710840A08131BDEF
:10697000F8B504000D0016000020002100220023BD
:10698000DFF88C71BC4215D0DFF88801844211D049
:10699000DFF8840184420DD0DFF88001844209D001
:1069A000DFF88001844205D040F28911DFF87001E0
:1069B000FDF762FAADB2282D26D040F22770ADB2B5
:1069C000854221D040F22660ADB285421CD040F213
:1069D0002550ADB2854217D040F22440ADB2854279
:1069E00012D040F64600ADB285420DD040F66A1096
:1069F000ADB2854208D0ADB2602D05D04FF4C5715F
:106A0000DFF81C01FDF738FAF6B2002E08D0F6B216
:106A1000012E05D040F28B11DFF80401FDF72CFAAE
:106A200040F66A10ADB2854211D1DFF8E40084422D
:106A30000DD0DFF8E000844209D0DFF8DC008442AA
:106A400005D040F28F11DFF8D800FDF715FA2300CA
:106A50002800C0B24009C0B2ADB215F01F0101223A
:106A60008A40012801D10C3304E0022801D11033FF
:106A700000E01433F6B2002E03D0186810431860FB
:106A800002E0186890431860F1BD70B504000D0075
:106A90001600DFF87C00844215D0DFF878008442CD
:106AA00011D0DFF8740084420DD0DFF8700084420A
:106AB00009D0DFF87000844205D040F2C311DFF83E
:106AC0006000FDF7D9F94FF63F70054202D1ADB233
:106AD000002D05D14FF4E271DFF84400FDF7CCF949
:106AE000F6B2002E08D0F6B2012E05D040F2C51144
:106AF000DFF82C00FDF7C0F9F6B2002E03D0A08A13
:106B00002843A08202E0A08AA843A08270BD0000B2
:106B1000003801400044004000480040004C004064
:106B2000089D00080050004021AA440070B50400F0
:106B30000D000021002200230020674EB44210D037
:106B4000664884420DD0664884420AD06548844233
:106B500007D06648844204D040F2C1316248FDF754
:106B60008BF9ADB2282D2ED040F22770ADB2854200
:106B700029D040F22660ADB2854224D040F22550A3
:106B8000ADB285421FD040F22440ADB285421AD04A
:106B900040F64600ADB2854215D040F66A10ADB25F
:106BA000854210D0ADB2B5F5587F0CD0ADB2B5F579
:106BB000187F08D0ADB2B5F5B07F04D040F2C23135
:106BC0004948FDF759F940F66A10ADB285420DD13A
:106BD000414884420AD04148844207D04048844218
:106BE00004D040F2C6314048FDF746F92800C0B253
:106BF0004309DBB2ADB215F01F02012010FA02F218
:106C0000012B02D1A089024006E0022B02D1208A8A
:106C1000024001E0A08A0240ADB2290A89B20120F7
:106C200010FA01F120880140002A03D0002901D088
:106C3000012000E00020C0B270BD38B504000D0096
:106C400000200021244A944210D0244884420DD0D0
:106C5000234884420AD02348844207D023488442F0
:106C600004D040F20A412048FDF706F940F22660C0
:106C7000ADB2854213D040F22550ADB285420ED060
:106C800040F64600ADB2854209D040F66A10ADB27A
:106C9000854204D040F20B411348FDF7EDF840F671
:106CA0006A10ADB285420DD10B4884420AD00B4820
:106CB000844207D00A48844204D040F20F410A4877
:106CC000FDF7DAF8ADB2280A0121814089B2C84344
:106CD000208031BD00000000003801400044004029
:106CE00000480040004C0040089D00080050004053
:106CF00010B50400DFF82C06844230D0DFF82806F7
:106D000084422CD0DFF82406844228D0DFF8200605
:106D1000844224D0DFF81C06844220D0DFF8180615
:106D200084421CD0DFF81406844218D0DFF8100625
:106D3000844214D0DFF80C06844210D0DFF8080635
:106D400084420CD0DFF80406844208D0DFF8000645
:106D5000844204D06F21DFF8FC05FDF78DF8206830
:106D60004FF6FE7108402060002020600020606027
:106D70000020A0600020E060DFF8A805844208D170
:106D8000DFF8D405006850F00F00DFF8CC1508607C
:106D90008DE0DFF89405844208D1DFF8BC05006877
:106DA00050F0F000DFF8B015086080E0DFF87C05F7
:106DB000844208D1DFF8A005006850F47060DFF865
:106DC0009815086073E0DFF86805844208D1DFF8A1
:106DD0008805006850F47040DFF87C15086066E0B4
:106DE000DFF85005844208D1DFF86C05006850F4E4
:106DF0007020DFF86415086059E0DFF83C05844234
:106E000008D1DFF85405006850F47000DFF8481529
:106E100008604CE0DFF82405844208D1DFF838052B
:106E2000006850F07060DFF8301508603FE0DFF870
:106E30001005844208D1DFF82405006850F00F00E7
:106E4000DFF81815086032E0DFF8F804844208D152
:106E5000DFF80805006850F0F000DFF80015086062
:106E600025E0DFF8E404844208D1DFF8F00400688C
:106E700050F47060DFF8E414086018E0DFF8CC0428
:106E8000844208D1DFF8D404006850F47040DFF881
:106E9000CC1408600BE0DFF8B804844207D1DFF8B7
:106EA000BC04006850F47020DFF8B014086010BD16
:106EB00038B504000D000020DFF868148C4230D093
:106EC000DFF8640484422CD0DFF86004844228D0C8
:106ED000DFF85C04844224D0DFF85804844220D0D8
:106EE000DFF8540484421CD0DFF85004844218D0E8
:106EF000DFF84C04844214D0DFF84804844210D0F8
:106F0000DFF8440484420CD0DFF84004844208D007
:106F1000DFF83C04844204D0CF21DFF83804FCF7CA
:106F2000ABFFA868102807D0A868002804D0D0219B
:106F3000DFF82004FCF7A0FFE868002803D0E86829
:106F4000B0F5803F04D3D121DFF80804FCF794FFAB
:106F50002869402807D02869002804D0D221DFF80A
:106F6000F403FCF789FF6869802807D06869002866
:106F700004D0D321DFF8DC03FCF77EFFA8690028EA
:106F80000CD0A869B0F5807F08D0A869B0F5007F63
:106F900004D0D421DFF8BC03FCF76EFFE8690028B9
:106FA0000CD0E869B0F5806F08D0E869B0F5006FE3
:106FB00004D0D521DFF89C03FCF75EFF286A202867
:106FC00007D0286A002804D0D621DFF88803FCF710
:106FD00053FF686AB0F5405F0FD0686AB0F5005F94
:106FE0000BD0686AB0F5805F07D0686A002804D0CB
:106FF000D721DFF86003FCF73FFFA86AB0F5804FA8
:1070000007D0A86A002804D0D821DFF84803FCF78D
:1070100033FF20686FF30E10A9682A6A11432A69AA
:1070200011436A691143AA691143EA6911436A6A03
:107030001143AA6A114308432060E8686060286829
:10704000A0606868E06031BD38B504000D00DFF86D
:10705000D402844231D0DFF8D00284422DD0DFF850
:10706000CC02844229D0DFF8C802844225D0DFF860
:10707000C402844221D0DFF8C00284421DD0DFF870
:10708000BC02844219D0DFF8B802844215D0DFF880
:10709000B402844211D0DFF8B00284420DD0DFF890
:1070A000AC02844209D0DFF8A802844205D040F245
:1070B0002911DFF8A002FCF7DFFEEDB2002D08D0A9
:1070C000EDB2012D05D04FF49571DFF88802FCF781
:1070D000D3FEEDB2002D04D0206850F001002060F6
:1070E00004E020684FF6FE710840206031BD70B5A5
:1070F00004000D001600DFF82C02844231D0DFF8C6
:10710000280284422DD0DFF82402844229D0DFF8FF
:107110002002844225D0DFF81C02844221D0DFF80F
:10712000180284421DD0DFF81402844219D0DFF81F
:107130001002844215D0DFF80C02844211D0DFF82F
:10714000080284420DD0DFF80402844209D0DFF83F
:107150000002844205D040F24911DFF8F801FCF743
:107160008BFE35F00E00002801D1002D05D14FF423
:10717000A571DFF8E001FCF77FFEF6B2002E08D023
:10718000F6B2012E05D040F24B11DFF8C801FCF732
:1071900073FEF6B2002E03D020682843206002E080
:1071A0002068A843206070BD10B5040014F0704F33
:1071B00002D08048044201D1002C04D140F20E21BB
:1071C0006448FCF759FEE00002D56448046001E021
:1071D0006148046010BD10B5040000200021012C9E
:1071E00000F09180022C00F08E80042C00F08B8047
:1071F000082C00F08880102C00F08580202C00F0F6
:107200008280402C00F07F80802C7CD0B4F5807F81
:1072100079D0B4F5007F76D0B4F5806F73D0B4F533
:10722000006F70D0B4F5805F6DD0B4F5005F6AD0A8
:10723000B4F5804F67D0B4F5004F64D0B4F5803F0B
:1072400061D0B4F5003F5ED0B4F5802F5BD0B4F5CB
:10725000002F58D0B4F5801F55D0B4F5001F52D080
:10726000B4F5800F4FD0B4F5000F4CD0B4F1807F4F
:1072700049D0B4F1007F46D0B4F1806F43D0B4F16F
:10728000006F40D0364884423DD0364884423AD0E0
:107290003548844237D03548844234D0344884421B
:1072A00031D0344884422ED0334884422BD03348E6
:1072B000844228D03248844225D03248844222D0A9
:1072C000314884421FD0314884421CD0B4F1102F81
:1072D00019D02F48844216D02E48844213D02E480D
:1072E000844210D02D4884420DD02D4884420AD0CB
:1072F0002C48844207D02C48844204D040F25921C3
:107300001448FCF7B9FDE00002D52848016801E007
:1073100027480168214201D0012000E00020C0B2CE
:1073200010BD0000080002401C0002403000024076
:1073300044000240580002406C00024080000240BD
:10734000080402401C04024030040240440402408D
:1073500058040240CC9D000804000240040402408E
:1073600001000010020000100400001008000010CE
:1073700010000010200000104000001080000010DD
:1073800000010010000200100004001000080010AE
:1073900000200010004000100080001000000110CC
:1073A0000000021000000410000008100004024059
:1073B000000002400000F0EF38B50400E56BA07D4E
:1073C000C00628D4E08AC0050AD5402200212869D9
:1073D000FCF7DEFF2869002101642869002141646F
:1073E000E08A00050FD500206969886069694860F6
:1073F000102000905023686910F14402AAA1686926
:107400000C3000F05BFB01212868FFF77AFAE08A74
:1074100050F01000E082002032BD002070470020B4
:1074200070472DE9F04114001D0026000027D0F818
:107430003C80C08AC00528D4301BA84235D2D8F879
:10744000000000888006F7D5D8F8000080883070EA
:10745000761CF4E7D8F81010096CD8F81020895C75
:107460003170761C6D1ED8F81010096C491CD8F8C4
:1074700010201164D8F81010096C402903D3D8F8F3
:10748000101000220A64FCF749FD002D0DD0FCF716
:1074900041FDD8F81010096CD8F81020526C9142B8
:1074A000D8D17FF00307FCF739FD3800FCF75CFF0B
:1074B000301BBDE8F08170B504000D0016000021FE
:1074C0002000FFF7C1FDE560666001212000FFF7A5
:1074D000BBFD70BD2DE9F843814614009846002598
:1074E0002600D9F83C703879012803D1B989B868E9
:1074F000FBF76FFFB9F8160040055DD4B9F8160028
:1075000000053AD55FF0FF3178690C3000F00EFBD2
:107510008146B9F1000F02D17FF004054CE0C9F8B3
:107520000060C9F804800020C9F80800FCF7F2FCEC
:10753000804678698068C9F80C00786980680028FE
:1075400003D078698068C0F808907869C0F808901E
:107550007869406800280CD17869C0F8049078698F
:107560004068426878694068016878690068FFF798
:10757000A2FF4046FCF7D2FC1EE099F81600400638
:1075800017D5B8F1000F17D0386800884006FBD532
:10759000386831788180761CB8F10108F1E73868E5
:1075A00000880006FBD5386831788180761CB8F1F8
:1075B0000108B8F1000FF2D13879012807D13868F5
:1075C00000884006FBD5B989B868FBF731FF280071
:1075D000FCF7CAFE301BBDE8F28310B586B003008D
:1075E0001000DC6BC9B2012937D03FD3032911D079
:1075F0002AD304293AD1D88AC0050AD540220021CD
:107600002069FCF7C5FE2069002101642069002182
:1076100041642BE002A9009103AB01AA234900F0C9
:10762000F5FA9DF80C00452804D04F2805D14FF4F9
:10763000C06203E04FF4806200E0002292B2019940
:107640002068FDF7D6FE11E0D88A50F02000D882DD
:1076500000212068FFF755F908E0D88A4FF6DF715E
:107660000840D88201212068FFF74BF9002006B0BE
:1076700010BD10B5002404750024C4610024046208
:107680000B4C44620B4C84620B4CC4620B4C046385
:107690000B4C44630B4C8463C36352F0030292B2FD
:1076A000FCF784FB10BD0000646E0000F8A4000825
:1076B000B97300081B7400081F74000823740008C5
:1076C000D5740008DB75000838B50400E56B40F29E
:1076D00025512868FFF72AFA002828D149E0FCF74D
:1076E00019FC2969496C2A692B689B888B54296984
:1076F000496C491C2A6951642969496C402902D3A3
:10770000296900224A642969496C2A69126C9142EC
:107710000BD12969096C491C2A6911642969096C12
:10772000402902D3296900220A64FCF7F7FB286884
:1077300000888006D3D440F225512868FFF77DFAEF
:10774000E069002815D02869406C2969096C8842D5
:1077500007D22869006CD0F140002969496C0918EA
:1077600004E02869406C2969096C411A2000E2692B
:10777000904740F226612868FFF7D8F9002804D026
:1077800040F226612868FFF758FA31BD38B5C46B5E
:1077900061694D68016A002902D02968026A904730
:1077A000FCF7B8FB6169AA684A6061694968002909
:1077B00002D1616900228A60FCF7B0FB280000F06A
:1077C00002FA6069406800280AD06069406842682F
:1077D00060694068016860690068FFF76CFE04E05A
:1077E000002160690068FFF72FFC31BD38B5040047
:1077F0000D000020DFF8A0128C420CD0DFF89C02B4
:10780000844208D0DFF89802844204D0A321DFF834
:107810009402FCF731FB2888002810D02888B0F5A6
:10782000806F0CD02888B0F5004F08D02888B0F5BC
:10783000404F04D0A621DFF86C02FCF71DFB6888DE
:10784000B0F5827F07D06888002804D0A721DFF830
:107850005402FCF711FBA888B0F5006F07D0A88888
:10786000002804D0A821DFF83C02FCF705FBE888DB
:10787000002807D0E888022804D0A921DFF82402D4
:10788000FCF7FAFA2889002807D02889012804D0B3
:10789000AA21DFF81002FCF7EFFA6889B0F5007F43
:1078A00007D06889002804D0AB21DFF8F801FCF785
:1078B000E3FAA889002819D0A889082816D0A88931
:1078C000102813D0A889182810D0A88920280DD0F6
:1078D000A88928280AD0A889302807D0A88938285C
:1078E00004D0AC21DFF8BC01FCF7C6FAE889002817
:1078F00007D0E889802804D0AD21DFF8A801FCF783
:10790000BBFA288A012804D2AE21DFF89801FCF7DF
:10791000B3FA208810F4415029886A881143AA8854
:107920001143EA8811432A8911436A891143AA89BC
:107930001143EA89114308432080A08B4FF2FF7165
:107940000840A083288A208231BD002101800021C7
:107950004180002181800021C1800021018100211E
:107960004181002181810021C1810721018270476D
:1079700038B504000D00DFF8200184420DD0DFF897
:107980001C01844209D0DFF81801844205D04FF46D
:10799000D771DFF81001FCF76FFAEDB2002D08D0B7
:1079A000EDB2012D05D040F2AF11DFF8F800FCF781
:1079B00063FAEDB2002D04D0208850F04000208002
:1079C00004E020884FF6BF710840208031BD38B5F3
:1079D00004000D00DFF8C00084420DD0DFF8BC00C9
:1079E000844209D0DFF8B800844205D040F2262155
:1079F000DFF8B000FCF740FAA58131BD10B50400F6
:107A0000DFF8940084420DD0DFF89000844209D062
:107A1000DFF88C00844205D040F23621DFF8840084
:107A2000FCF72AFAA08910BD38B504000D0000202B
:107A300019498C420AD01948844207D01848844218
:107A400004D040F202311748FCF716FAADB2802D8F
:107A500019D0ADB2402D16D0ADB2202D13D0ADB29D
:107A6000102D10D0ADB2082D0DD0ADB2042D0AD01E
:107A7000ADB2022D07D0ADB2012D04D040F20331DA
:107A80000848FCF7F9F92089284201D0012000E0DC
:107A90000020C0B232BD000000300140003800407C
:107AA000003C0040AC9F00084060006070470268E6
:107AB000516002680A6001604860704770B5040058
:107AC00015001E000A0005212000FCF7E8FB656197
:107AD000B0088000A061049DE81C8508AD00E56148
